:020000040800F2
:1000000000000824B9330008792C00087B2C000874
:100010007D2C00087F2C0008812C000800000000C7
:10002000000000000000000000000000832C000819
:10003000852C000800000000872C0008892C00088F
:100040000D3400080D3400080D3400080D3400088C
:100050000D3400080D3400080D3400080D3400087C
:10006000912C00089B2C0008A52C00080D340008DA
:100070000D3400080D3400080D3400080D3400085C
:100080000D3400080D3400080D3400080D3400084C
:100090000D3400080D3400080D340008AF2C0008A2
:1000A0000D3400080D3400080D3400080D3400082C
:1000B000C12C00080D3400080D3400080D34000870
:1000C0000D3400080D3400080D3400080D3400080C
:1000D0000D3400080D3400080D3400080D340008FC
:1000E0000D3400080D340008000000000D34000835
:1000F0000D3400080D3400080D3400080D340008DC
:100100000D3400080D3400080D3400080D340008CB
:100110000D3400080D340008D12C00080D340008FF
:100120000D3400080D3400080D3400080D340008AB
:100130000D3400080D3400080D3400080D3400089B
:1001400000000000000000000000000000000000AF
:100150000D3400080D3400080D3400080D3400087B
:100160000D3400080D3400080D3400080D3400086B
:100170000D3400080D3400080D34000800000000A4
:100180000D3400080D3400080D3400080D3400084B
:100190000D3400080D3400080D3400080D3400083B
:1001A000E12C00080D340008F12C00080D34000883
:1001B0000D3400080D3400080D3400080D3400081B
:1001C0000D3400080D3400080D3400080D3400080B
:1001D0000D3400080D3400080D3400080D340008FB
:1001E0000D3400080D3400080D3400080D340008EB
:1001F0000D3400080D3400080D3400080D340008DB
:100200000D3400080D3400080D3400080D340008CA
:100210000D3400080D3400080D3400080D340008BA
:100220000D3400080D3400080D34000800000000F3
:100230000D3400080D340008000000000D340008E3
:100240000D3400080D3400080D3400080D3400088A
:100250000D3400080D3400080D3400080D3400087A
:100260000D3400080D3400080D3400080D3400086A
:100270000D3400080D3400080D34000800000000A3
:100280000D3400080D3400080D3400080000000093
:08029000000000000D3400081D
:1002A00010B5054C237833B9044B13B10448AFF3B0
:1002B00000800123237010BD6807012400000000A6
:1002C0006472030808B5034B1BB103490348AFF33D
:1002D000008008BD000000006C0701246472030860
:1002E00053B94AB9002908BF00281CBF4FF0FF319D
:1002F0004FF0FF3000F06AB9ADF1080C6DE904CEA3
:1003000000F006F8DDF804E0DDE9022304B07047F0
:100310002DE9F047089D0C46002B4ED194468C45A4
:100320008646B2FA82F262D94AB1C2F12003914004
:1003300020FA03F30CFA02FC194300FA02FE4FEA1A
:100340001C471FFA8CF6B1FBF7F44FEA1E4307FB7C
:10035000141143EA014304FB06F199420AD91CEB4C
:10036000030304F1FF3080F01281994240F20F81C3
:10037000023C6344591A1FFA8EF3B1FBF7F007FBF6
:10038000101143EA014300FB06F69E420AD91CEB1A
:10039000030300F1FF3180F0FC809E4240F2F980BF
:1003A000634402389B1B40EA044000211DB1D34046
:1003B0000022C5E90032BDE8F0878B4205D90DB1B6
:1003C000C5E9000100210846F5E7B3FA83F10029E9
:1003D00046D1A34202D39042C0F0F080861A64EB6B
:1003E00003030120002DE6D0C5E90063E3E7002AFE
:1003F00040F09080A1EB0C044FEA1C481FFA8CF7E8
:100400000121B4FBF8F64FEA1E4308FB164443EA09
:10041000044307FB06F0984208D91CEB030306F1DE
:10042000FF3402D2984200F2CD8026461C1A1FFAF1
:100430008EF3B4FBF8F008FB104443EA044300FBDE
:1004400007F79F4208D91CEB030300F1FF3402D2E7
:100450009F4200F2B0802046DB1B40EA0640A5E741
:10046000C1F120068B4022FA06F71F4320FA06FC52
:1004700004FA01F343EA0C03F44000FA01F8380CE3
:100480004FEA1349B4FBF0FE1FFA87FC00FB1E4441
:1004900049EA04440EFB0CF9A14502FA01F20AD91B
:1004A0003C190EF1FF3A80F08480A14540F2818032
:1004B000AEF1020E3C44A4EB09041FFA83F9B4FB2D
:1004C000F0F300FB134449EA044403FB0CFCA4458D
:1004D00007D93C1903F1FF3067D2A44565D9023B27
:1004E0003C4443EA0E40A0FB0293A4EB0C049C4264
:1004F000CE469C4651D34ED055B1B8EB0E0364EBBB
:100500000C0404FA06F6CB401E43CC40C5E9006457
:10051000002150E7C2F1200320FA03F10CFA02FC9B
:1005200024FA03F394400C434FEA1C4800FA02FEFD
:100530001FFA8CF7B3FBF8F008FB1031230C43EAE9
:10054000014300FB07F1994208D91CEB030300F1BA
:10055000FF362CD299422AD9023863445B1AA4B2DE
:10056000B3FBF8F108FB113344EA034401FB07F342
:10057000A34208D91CEB040401F1FF3613D2A342B5
:1005800011D902396444E41A41EA004139E70446CA
:10059000F0E6084606E7C845AED2B9EB020E63EBBB
:1005A000070C0138A8E73146EDE7034699E73046E6
:1005B000D4E7D6467FE7634402384DE70646234634
:1005C00008460FE7023E634430E700BF704700BFB4
:1005D00010F8012B11F8013B012A28BF9A42F7D0ED
:1005E000D01A7047034613F8012B002AFBD1181AC2
:1005F000013870470000000000000000000000000B
:1006000001F0FF01102A2BDB10F0070F08D010F8C3
:10061000013B013A8B422DD010F0070F42B3F6D1C7
:10062000F0B441EA012141EA014122F007047FF0E0
:1006300000070023F0E80256083C85EA010586EA37
:10064000010685FA47F5A3FA87F586FA47F6A5FA73
:1006500087F68EB9EED1F0BC01F0FF0102F007027F
:1006600032B110F8013B013A83EA010313B1F8D12A
:100670000020704701387047002D06BF354603380B
:10068000073815F0010F07D1013015F4807F02BF44
:10069000013015F4C03F0130F0BC0138704700BF95
:1006A00081F0004102E000BF83F0004330B54FEA23
:1006B00041044FEA430594EA050F08BF90EA020F90
:1006C0001FBF54EA000C55EA020C7FEA645C7FEA23
:1006D000655C00F0E2804FEA5454D4EB5555B8BF46
:1006E0006D420CDD2C4480EA020281EA030382EAB7
:1006F000000083EA010180EA020281EA0303362D49
:1007000088BF30BD11F0004F4FEA01314FF4801C1B
:100710004CEA113102D0404261EB410113F0004F2D
:100720004FEA03334CEA133302D0524263EB4303E4
:1007300094EA050F00F0A780A4F10104D5F1200E82
:100740000DDB02FA0EFC22FA05F2801841F10001DD
:1007500003FA0EF2801843FA05F359410EE0A5F1B1
:1007600020050EF1200E012A03FA0EFC28BF4CF0E2
:10077000020C43FA05F3C01851EBE37101F0004598
:1007800007D54FF0000EDCF1000C7EEB00006EEBA5
:100790000101B1F5801F1BD3B1F5001F0CD349082F
:1007A0005FEA30004FEA3C0C04F101044FEA445286
:1007B00012F5800F80F09A80BCF1004F08BF5FEA0D
:1007C000500C50F1000041EB045141EA050130BDED
:1007D0005FEA4C0C404141EB0101013C28BFB1F5FF
:1007E000801FE9D291F0000F04BF01460020B1FA4A
:1007F00081F308BF2033A3F10B03B3F120020CDA1D
:100800000C3208DD02F1140CC2F10C0201FA0CF0FA
:1008100021FA02F10CE002F11402D8BFC2F1200C5F
:1008200001FA02F120FA0CFCDCBF41EA0C01904015
:10083000E41AA2BF01EB0451294330BD6FEA04045E
:100840001F3C1CDA0C340EDC04F11404C4F1200249
:1008500020FA04F001FA02F340EA030021FA04F35B
:1008600045EA030130BDC4F10C04C4F1200220FAB2
:1008700002F001FA04F340EA0300294630BD21FAF0
:1008800004F0294630BD94F0000F83F4801306BFB6
:1008900081F480110134013D4EE77FEA645C18BFAA
:1008A0007FEA655C29D094EA050F08BF90EA020F41
:1008B00005D054EA000C04BF1946104630BD91EA39
:1008C000030F1EBF0021002030BD5FEA545C05D13C
:1008D0004000494128BF41F0004130BD14F580047B
:1008E0003CBF01F5801130BD01F0004545F0FE41EF
:1008F00041F470014FF0000030BD7FEA645C1ABF24
:10090000194610467FEA655C1CBF0B46024650EA5A
:10091000013406BF52EA033591EA030F41F4002186
:1009200030BD00BF90F0000F04BF0021704730B50C
:100930004FF4806404F132044FF000054FF00001E1
:1009400050E700BF90F0000F04BF0021704730B5A2
:100950004FF4806404F1320410F0004548BF404277
:100960004FF000013EE700BF42004FEAE2014FEACC
:1009700031014FEA02701FBF12F07F4393F07F4FA7
:1009800081F06051704732F07F4208BF704793F0AA
:100990007F4F04BF41F40021704730B54FF46074BD
:1009A00001F0004521F000411CE700BF50EA0102C0
:1009B00008BF704730B54FF000050AE050EA010269
:1009C00008BF704730B511F0004502D5404261EBD9
:1009D00041014FF4806404F132045FEA915C3FF41A
:1009E000D8AE4FF003025FEADC0C18BF03325FEAB7
:1009F000DC0C18BF033202EBDC02C2F1200300FA68
:100A000003FC20FA02F001FA03FE40EA0E0021FA8C
:100A100002F11444BDE600BF70B54FF0FF0C4CF47A
:100A2000E06C1CEA11541DBF1CEA135594EA0C0F2C
:100A300095EA0C0F00F0DEF82C4481EA030621EA67
:100A40004C5123EA4C5350EA013518BF52EA0335A2
:100A500041F4801143F4801338D0A0FB02CE4FF054
:100A60000005E1FB02E506F00042E0FB03E54FF084
:100A70000006E1FB03569CF0000F18BF4EF0010E7C
:100A8000A4F1FF04B6F5007F64F5407404D25FEA78
:100A90004E0E6D4146EB060642EAC62141EA55512B
:100AA0004FEAC52040EA5E504FEACE2EB4F1FD0C6D
:100AB00088BFBCF5E06F1ED8BEF1004F08BF5FEAEB
:100AC000500E50F1000041EB045170BD06F000469D
:100AD00046EA010140EA020081EA0301B4EB5C044A
:100AE000C2BFD4EB0C0541EA045170BD41F4801142
:100AF0004FF0000E013C00F3AB8014F1360FDEBF67
:100B0000002001F0004170BDC4F10004203C35DA42
:100B10000C341BDC04F11404C4F1200500FA05F3C5
:100B200020FA04F001FA05F240EA020001F0004266
:100B300021F0004110EBD37021FA04F642EB0601DC
:100B40005EEA430E08BF20EAD37070BDC4F10C0406
:100B5000C4F1200500FA04F320FA05F001FA04F2CA
:100B600040EA020001F0004110EBD37041F10001B6
:100B70005EEA430E08BF20EAD37070BDC4F12005C1
:100B800000FA05F24EEA020E20FA04F301FA05F229
:100B900043EA020321FA04F001F0004121FA04F2D1
:100BA00020EA020000EBD3705EEA430E08BF20EAA1
:100BB000D37070BD94F0000F0FD101F000464000DB
:100BC00041EB010111F4801F08BF013CF7D041EA5D
:100BD000060195F0000F18BF704703F00046520061
:100BE00043EB030313F4801F08BF013DF7D043EA32
:100BF0000603704794EA0C0F0CEA135518BF95EAE8
:100C00000C0F0CD050EA410618BF52EA4306D1D16E
:100C100081EA030101F000414FF0000070BD50EA8D
:100C2000410606BF1046194652EA430619D094EA17
:100C30000C0F02D150EA013613D195EA0C0F05D101
:100C400052EA03361CBF104619460AD181EA030155
:100C500001F0004141F0FE4141F470014FF000000D
:100C600070BD41F0FE4141F4780170BD70B54FF0A8
:100C7000FF0C4CF4E06C1CEA11541DBF1CEA135528
:100C800094EA0C0F95EA0C0F00F0A7F8A4EB05040A
:100C900081EA030E52EA03354FEA013100F0888001
:100CA0004FEA03334FF0805545EA131343EA1263CA
:100CB0004FEA022245EA111545EA10654FEA00267F
:100CC0000EF000419D4208BF964244F1FD0404F538
:100CD000407402D25B084FEA3202B61A65EB030594
:100CE0005B084FEA32024FF480104FF4002CB6EB51
:100CF000020E75EB030E22BFB61A754640EA0C00D1
:100D00005B084FEA3202B6EB020E75EB030E22BF10
:100D1000B61A754640EA5C005B084FEA3202B6EB51
:100D2000020E75EB030E22BFB61A754640EA9C0010
:100D30005B084FEA3202B6EB020E75EB030E22BFE0
:100D4000B61A754640EADC0055EA060E18D04FEA9E
:100D5000051545EA16754FEA06164FEAC30343EA3E
:100D600052734FEAC2025FEA1C1CC0D111F4801F0B
:100D70000BD141EA00014FF000004FF0004CB6E704
:100D800011F4801F04BF01430020B4F1FD0C88BFA3
:100D9000BCF5E06F3FF6AFAEB5EB030C04BFB6EBAE
:100DA000020C5FEA500C50F1000041EB045170BDA1
:100DB0000EF0004E4EEA113114EB5C04C2BFD4EBCE
:100DC0000C0541EA045170BD41F480114FF0000E52
:100DD000013C90E645EA060E8DE60CEA135594EACE
:100DE0000C0F08BF95EA0C0F3FF43BAF94EA0C0FD1
:100DF0000AD150EA01347FF434AF95EA0C0F7FF446
:100E000025AF104619462CE795EA0C0F06D152EA99
:100E100003353FF4FDAE1046194622E750EA41067D
:100E200018BF52EA43067FF4C5AE50EA41047FF48E
:100E30000DAF52EA43057FF4EBAE12E74FF0FF3CF3
:100E400006E000BF4FF0010C02E000BF4FF0010CC4
:100E50004DF804CD4FEA410C7FEA6C5C4FEA430C3D
:100E600018BF7FEA6C5C1BD001B050EA410C0CBF8C
:100E700052EA430C91EA030F02BF90EA020F0020EE
:100E8000704710F1000F91EA030F58BF994208BF55
:100E900090422CBFD8176FEAE37040F00100704712
:100EA0004FEA410C7FEA6C5C02D150EA013C07D169
:100EB0004FEA430C7FEA6C5CD6D152EA033CD3D0B4
:100EC0005DF8040B704700BF8446104662468C46AE
:100ED0001946634600E000BF01B5FFF7B7FF0028E1
:100EE00048BF10F1000F01BD4DF808EDFFF7F4FF0A
:100EF0000CBF012000205DF808FB00BF4DF808ED95
:100F0000FFF7EAFF34BF012000205DF808FB00BFB7
:100F10004DF808EDFFF7E0FF94BF012000205DF8D9
:100F200008FB00BF4DF808EDFFF7CEFF94BF01208E
:100F300000205DF808FB00BF4DF808EDFFF7C4FF87
:100F400034BF012000205DF808FB00BF4FEA410CD0
:100F50007FEA6C5C02D150EA013C0AD14FEA430CB3
:100F60007FEA6C5C02D152EA033C02D14FF00000F0
:100F700070474FF0010070474FEA410212F500122E
:100F800015D211D56FF47873B3EB625212D94FEAD0
:100F9000C12343F0004343EA505311F0004F23FABA
:100FA00002F018BF404270474FF00000704750EA0F
:100FB000013005D111F0004008BF6FF000407047CC
:100FC0004FF00000704700BF10B40D4CA47954B925
:100FD000019C20600298016003990A60049A1360E2
:100FE0005DF8044B7047019C216040F27F218A1A12
:100FF000029C2260039A1360091A049B1960EFE7B0
:101000000C00002420F01F0200F01F00084400F133
:101010001F0323F01F03002B0CDDBFF34F8F064986
:10102000C1F868222032203B002BF8DCBFF34F8F41
:10103000BFF36F8F704700BF00ED00E020F01F028C
:1010400000F01F00084400F11F0323F01F03002BD2
:101050000CDDBFF34F8F0649C1F85C222032203BE4
:10106000002BF8DCBFF34F8FBFF36F8F704700BFCB
:1010700000ED00E010B4064CA4685B1AC3EB031348
:10108000121A02EB431202FB04405DF8044B704756
:101090000C00002410B504464FF41621FFF7B2FFF0
:1010A000002221460C4805F079F888B902210A4847
:1010B00005F04CF802F00EFA0446084B5B6A13F098
:1010C000020F04D002F006FA001B3228F5D910BD39
:1010D00001F0A7FBEAE700BFDC0901240010005083
:1010E000F8B5184B47F201729A804FF420721A80BB
:1010F0004FF4F0725A8001229A7102229A60124FC4
:101100004FF040403860114D114B2B60114B4FF6A2
:10111000FF721A600026104B1E604FF41624224600
:10112000314631F0ACFC22463146286831F0A7FC4C
:1011300021463868FFF766FF21462868FFF762FFFF
:10114000F8BD00BF0C0000240800002404000024A7
:10115000000020C000000024840701240A4B98717D
:1011600030B94FF4F0721A804FF420725A807047F1
:10117000012800D07047044B4FF420721A804FF4BE
:10118000F0725A80F6E700BF0C00002470B588B0FA
:1011900004AC039405AC029406AC019407AC009433
:1011A000FFF712FF079884B2059B9BB2E41AA4B222
:1011B00004F2DF14A4B2284B9A680699C1EB01131C
:1011C00000EB4313254D2D6803FB0255049B059A44
:1011D000FFF750FF064601462846FFF713FF204A57
:1011E000D2F8D83043F40003C2F8D8301D4B1A6847
:1011F00022F001021A603F229A604FF440321A60D6
:1012000002225A631C64DD63049A0699521A013261
:1012100005990798091A013142EA01425A64BDF85A
:1012200030209A631A6842F001021A6000230D4AC6
:10123000526812F0020F03D10133B3F5001FF6D349
:10124000084A936843F00203936031462846FFF74B
:10125000F5FE08B070BD00BF0C000024040000249F
:10126000004402580010005200B583B0074B1A88A2
:101270005B88013B013A00909BB292B20021084684
:10128000FFF784FF03B05DF804FB00BF0C000024EF
:1012900030B583B004460C4D00221021284604F0DE
:1012A000B5FAADF806400A2301220DF10601074800
:1012B00008F06AFA044601221021284604F0A6FA32
:1012C000204603B030BD00BF00040258D00A0124FC
:1012D00030B583B004460D4D00221021284604F09D
:1012E00095FA44F48074ADF806400A2301220DF10A
:1012F0000601074808F048FA044601221021284652
:1013000004F084FA204603B030BD00BF0004025848
:10131000D00A012438B5FD4D01224FF480612846E2
:1013200004F074FAFA4C01228021204604F06EFA8F
:101330001E2002F0D5F800224FF48061284604F008
:1013400065FA00228021204604F060FA642002F051
:10135000C7F801224FF48061284604F057FA0122B1
:101360008021204604F052FA1E2002F0B9F8112024
:10137000FFF78EFF642002F0B3F8FF20FFF788FF2D
:101380007720FFF7A5FF0120FFF7A2FF0020FFF75E
:101390009FFF0020FFF79CFF1320FFF799FFEF202E
:1013A000FFF776FF0820FFF793FFFF20FFF770FF9E
:1013B0007720FFF78DFF0120FFF78AFF0020FFF75E
:1013C00087FF0020FFF784FF1020FFF781FFC02078
:1013D000FFF75EFF4F20FFF77BFF0020FFF778FF4E
:1013E000C120FFF755FF1020FFF772FF0C20FFF719
:1013F0006FFFC220FFF74CFF0120FFF769FF1420A9
:10140000FFF766FFCC20FFF743FF1020FFF760FFD8
:10141000B020FFF73DFF0A20FFF75AFF1820FFF723
:1014200057FF1E20FFF754FF1220FFF751FF162031
:10143000FFF74EFF0C20FFF74BFF0E20FFF748FF92
:101440000D20FFF745FF0C20FFF742FF2920FFF793
:101450003FFF0620FFF73CFF1420FFF739FF132062
:10146000FFF736FF2920FFF733FF3320FFF730FF68
:101470001C20FFF72DFFB120FFF70AFF0A20FFF71E
:1014800027FF1920FFF724FF2120FFF721FF0A2063
:10149000FFF71EFF0C20FFF71BFF0020FFF718FFD0
:1014A0000C20FFF715FF0320FFF712FF0320FFF7C3
:1014B0000FFF2320FFF70CFF0120FFF709FF0E208D
:1014C000FFF706FF0C20FFF703FF2720FFF700FFC1
:1014D0002B20FFF7FDFE1C20FFF7FAFEFF20FFF791
:1014E000D7FE7720FFF7F4FE0120FFF7F1FE002082
:1014F000FFF7EEFE0020FFF7EBFE1120FFF7E8FEFE
:10150000B020FFF7C5FE5D20FFF7E2FEB120FFF738
:10151000BFFE4F20FFF7DCFEB220FFF7B9FE002030
:10152000FFF7D6FEB320FFF7B3FE8020FFF7D0FE13
:10153000B520FFF7ADFE0C20FFF7CAFEB720FFF77E
:10154000A7FE8520FFF7C4FEB820FFF7A1FE2020EC
:10155000FFF7BEFEC120FFF79BFE7820FFF7B8FE25
:10156000C220FFF795FE7820FFF7B2FED020FFF7EC
:101570008FFE8820FFF7ACFEE020FFF789FE0020F9
:10158000FFF7A6FE0020FFF7A3FE0220FFF7A0FE54
:10159000E120FFF77DFE0620FFF79AFEA020FFF76F
:1015A00097FE0820FFF794FEA020FFF791FE05208C
:1015B000FFF78EFEA020FFF78BFE0720FFF788FEC7
:1015C000A020FFF785FE0020FFF782FE4420FFF7F2
:1015D0007FFE4420FFF77CFEE220FFF759FE20202B
:1015E000FFF776FE2020FFF773FE4420FFF770FE22
:1015F0004420FFF76DFE9620FFF76AFEA020FFF75C
:1016000067FE0020FFF764FE0020FFF761FE9620D2
:10161000FFF75EFEA020FFF75BFE0020FFF758FEFD
:101620000020FFF755FEE320FFF732FE0020FFF712
:101630004FFE0020FFF74CFE2220FFF749FE22203C
:10164000FFF746FEE420FFF723FE4420FFF740FEAD
:101650004420FFF73DFEE520FFF71AFE0D20FFF7BF
:1016600037FE9120FFF734FE0A20FFF731FEA0205D
:10167000FFF72EFE0F20FFF72BFE9320FFF728FE2B
:101680000A20FFF725FEA020FFF722FE0920FFF722
:101690001FFE8D20FFF71CFE0A20FFF719FEA02079
:1016A000FFF716FE0B20FFF713FE8F20FFF710FE4B
:1016B0000A20FFF70DFEA020FFF70AFEE620FFF745
:1016C000E7FD0020FFF704FE0020FFF701FE2220C7
:1016D000FFF7FEFD2220FFF7FBFDE720FFF7D8FD17
:1016E0004420FFF7F5FD4420FFF7F2FDE820FFF767
:1016F000CFFD0C20FFF7ECFD9020FFF7E9FD0A205D
:10170000FFF7E6FDA020FFF7E3FD03E0000002582D
:10171000000402580E20FFF7DBFD9220FFF7D8FDF2
:101720000A20FFF7D5FDA020FFF7D2FD0820FFF724
:10173000CFFD8C20FFF7CCFD0A20FFF7C9FDA020CC
:10174000FFF7C6FD0A20FFF7C3FD8E20FFF7C0FD9F
:101750000A20FFF7BDFDA020FFF7BAFDE920FFF743
:1017600097FD3620FFF7B4FD0020FFF7B1FDEB2019
:10177000FFF78EFD0020FFF7ABFD0120FFF7A8FD6E
:10178000E420FFF7A5FDE420FFF7A2FD4420FFF7CA
:101790009FFD8820FFF79CFD4020FFF799FDED207D
:1017A000FFF776FDFF20FFF793FD4520FFF790FD43
:1017B0006720FFF78DFDFA20FFF78AFD0120FFF774
:1017C00087FD2B20FFF784FDCF20FFF781FDFF2051
:1017D000FFF77EFDFF20FFF77BFDFC20FFF778FD84
:1017E000B220FFF775FD1020FFF772FDAF20FFF765
:1017F0006FFD7620FFF76CFD5420FFF769FDFF2099
:10180000FFF766FDEF20FFF743FD1020FFF760FDB7
:101810000D20FFF75DFD0420FFF75AFD0820FFF7BC
:1018200057FD3F20FFF754FD1F20FFF751FD3A20E1
:10183000FFF72EFD6620FFF74BFD1120FFF728FD77
:10184000782001F04DFE3620FFF722FD6820FFF7DB
:101850003FFD3520FFF71CFD0020FFF739FD292053
:10186000FFF716FD38BD00BF08B5FFF753FD08BDF3
:1018700038B50446154623F0CCFF18B9204623F0AE
:10188000C2FF38BD2846FFF705FCF7E738B50BF077
:101890005DFA0020FFF762FC104C2046FFF7FAFBD0
:1018A0000F4D4FF4962322464FF04041284623F037
:1018B000ABFE0C4C204623F083FE4FF4F0732380E4
:1018C0004FF420736380084B6361E560237C43F031
:1018D00002032374204623F0ADFE38BD000020C073
:1018E000D807012488070124711800084209054B14
:1018F00003EA102302F4FC6213439BB2C0F3C4005A
:101900001843704700F8FFFF0B4BA3FB002303F0C5
:10191000FC0202EB9303C01AC0B2032807D8DFE829
:1019200000F00208090405207047042070470920D0
:1019300070470720704700BFCDCCCCCC38B50546EA
:1019400000200BF031FA044610210BF039FA28463A
:10195000FFF7CCFF01460022204610F002F90022DA
:10196000FF21204610F004F9204638BDF8B50646A0
:101970000F4615462CF084F9044639462CF03CFEFF
:1019800000224FF0FF31204610F015F900221149D6
:10199000204610F017F91C230022022120460CF0EB
:1019A00043FB30462CF06CF9044629462CF024FE0B
:1019B00000224DF61D71204610F0FDF80022064968
:1019C000204610F0FFF848230022022120460CF0A8
:1019D0002BFBF8BD444E040804BB0308F8B50E46C3
:1019E00017461D460BF0E0F904463A4631460CF026
:1019F0007DFABDF91820294620460CF0AFFA0022E6
:101A00000821204610F0ECF800221146204610F084
:101A1000BDF80798FFF76AFF01460022204610F044
:101A2000A0F80022FF21204610F0A2F820462CF05A
:101A300027F9044608992CF0DFFD00224FF0FF3112
:101A4000204610F0B8F800220549204610F0BAF8F8
:101A500000231A46092120460CF0E6FAF8BD00BF23
:101A600020F9030870B588B005462348FFF766FFE4
:101A70000646224A2249FFF779FF00240DE021485B
:101A800000E0214804AB029301905C230093B22351
:101A90003046FFF7A3FF0134E4B2052C29D805EB4B
:101AA000450304EB4303194A10210DEB010030F00C
:101AB00055FF04F00103C3EBC302C2EB42129918B5
:101AC00089B21E3109B26308C3EB8312520092B28D
:101AD000843212B20E48A0FB043000F0FE0303EB88
:101AE0005003E31A13F0FF03CBD0012BC7D00948F2
:101AF000C8E7304608B070BD20181000987203087F
:101B0000B872030860AE2700DB9C2D00C472030886
:101B1000ABAAAAAA4A99F20070B58CB006461D4835
:101B2000FFF70CFF05461C4A1C49FFF71FFF002466
:101B30000BE01B4B04A80290019344230093CC2399
:101B40002846FFF74BFF0134E4B2072C1ED800945F
:101B50003346144A202104A830F000FF04F00103AA
:101B6000C3EBC30103EB8101C90089B2163109B28D
:101B700004F0FE0202EB54025201A2EB540292B2B4
:101B8000763212B2002BD4D1074BD3E728460CB0E3
:101B900070BD00BF2C1A2100C8720308E072030850
:101BA0009343E800E8720308E75C6C00F8B5074669
:101BB0002248FFF7C3FE0646214A2249FFF7D6FE18
:101BC000002437E030460BF0EFF8054604EB8402C2
:101BD000C2EBC2025200763212B200210CF086F93A
:101BE00034224FF4F07128460CF0B8F90022114667
:101BF00028460FF0F5FF0022114628460FF0C6FFD9
:101C0000E219114BA3FB02139B0803EB4303A2EB66
:101C100043030E4A52F82300FFF768FE01460022F4
:101C200028460FF09EFF0022FF2128460FF0A0FF5C
:101C30000134E4B2052CC5D93046F8BD161616009D
:101C4000F472030808730308ABAAAAAA4073030836
:101C50002DE9F04107463748FFF770FE8046364AC7
:101C60003649FFF783FE00240AE03548FFF73EFEC1
:101C700001464FF4003228460FF096FF0134E4B2DB
:101C8000032C54D8404627F08FFE05468222114689
:101C90000CF064F904F0010606EB4601C6EB0111F5
:101CA00001EB810189B22A3104F0FE0202EB5402F9
:101CB0005201A2EB5402520092B2863212B209B221
:101CC00028460CF013F964220021284628F01AF85F
:101CD00007EB071304EBC40204EB42021344990818
:101CE000184AA2FB012149084C2202FB113116318E
:101CF00009B2284627F0F0FF4FF440320021284671
:101D00000FF08CFD00220E2128460FF046FF4FF405
:101D100000320E2128460FF040FF002242F2092136
:101D200028460FF041FF002E9FD107489EE740460E
:101D3000BDE8F081251E0E001073030838730308F8
:101D40004CC9F200BD86F21AF2CC560008B500F07C
:101D50000303012B08D0022B09D013B1FFF778FF42
:101D600001E0FFF77FFE08BDFFF720FFFBE7FFF76D
:101D7000D3FEF8E730B583B005460B4B1878FFF774
:101D8000E5FF04466DB1084B1878FFF7BDFD01462D
:101D9000012300930023B422204609F0E9FD03B09B
:101DA00030BD09F04FFFFAE7F407012408B5044AF3
:101DB0001378013313700120FFF7DCFF08BD00BF6B
:101DC000F407012410B500200D4B1870FFF7D2FF67
:101DD0000C4B186858B14FF4617126F035FA094C74
:101DE000206826F03CFA206826F029FA10BD00226F
:101DF0004FF46171044826F01FF9024B1860F5E7B3
:101E0000F4070124F8070124AD1D000800B589B0CE
:101E1000002301930293039304930593069307937E
:101E200019481A4A02608360C36004220261037584
:101E3000437501228261037743628362C362036355
:101E4000436380F83830C26302F0B6F8B0B9104B83
:101E50000193062302930023039340F2FF7204923E
:101E60000422059206938DF81D300DEB0201064801
:101E700001F0AEFB28B909B05DF804FB00F0D1FC1D
:101E8000E5E700F0CEFCF6E7FC070124006002580D
:101E9000000084CB10B5B2B00446C022002102A8D5
:101EA00030F0EDFD2268154B9A4201D032B010BDE2
:101EB0004FF400220023CDE90223022304930C22D5
:101EC0000592069307930893C023099320230A934E
:101ED00002A805F041FC68B9094BD3F8E02042F0B4
:101EE0008072C3F8E020D3F8E03003F080730193F0
:101EF000019BDBE700F095FCEEE700BF00600258B5
:101F00000044025800B583B0164BD3F8E02042F4E9
:101F10000012C3F8E020D3F8E03003F4001301937B
:101F2000019B1148114B03600023436080228260B3
:101F30004FF40072C2604FF4806202614FF400629D
:101F400042614FF400528261C3614FF480330362F7
:101F500002F078FD10B903B05DF804FB00F061FCFD
:101F6000F9E700BF004402586008012408540258F1
:101F700008B50F480F4B03600023436002228260C4
:101F8000C36043648264C364036543658365C3655A
:101F900003F048F828B90121054803F081F918B980
:101FA00008BD00F03EFCF6E700F03BFCF8E700BFA0
:101FB000D80801240010005202680F4B9A4200D04A
:101FC000704700B583B00D4BD3F8D42042F0100217
:101FD000C3F8D420D3F8D43003F010030193019B4D
:101FE000002211465A2002F001FB5A2002F022FB87
:101FF00003B05DF804FB00BF00100052004402581B
:10200000F0B5B9B0002333933493359336933793B7
:102010003B4B1B680BB139B0F0BD394B01221A6044
:10202000C022002102A830F02AFD4FF08072002368
:10203000CDE9022302A805F08FFB00285CD1314BCB
:10204000D3F8D42042F48052C3F8D420D3F8D4304B
:1020500003F480530193019B4FF63F033393022413
:1020600034940026359636940C25379533A92648A6
:1020700003F002FA802333933494359636943795DF
:1020800033A9224803F0F8F930233393349435967A
:102090003694379533A91E4803F0EEF901233393A4
:1020A00034943596369437951A4F33A9384603F051
:1020B000E3F948F236133393349435960323369379
:1020C000379533A9384603F0D7F94FF68373339326
:1020D000349435963694379533A90F4803F0CCF9EC
:1020E0004CF203733393349435963694379533A971
:1020F0000A4803F0C1F98EE700F093FB9FE700BFA9
:1021000040090124004402580014025800000258FB
:10211000000802580018025800100258000C02581B
:102120002DE9F04182B005460C464FF00008CDF88D
:10213000048001260E6010274F608E60C1F80C806D
:102140004FF4805207F09EF8304601F0C9F902239F
:1021500023606760A660C4F80C804FF4805221466B
:10216000284607F08FF80323236067600823A360E5
:10217000C4F80C804FF480522146284607F082F8BC
:1021800040F231230193042323606760A660019B22
:10219000E3604FF480522146284607F073F840F27E
:1021A0009631284607F08FF802B0BDE8F0810000B4
:1021B00000B589B000230193029303930493059320
:1021C0000693079319481A4A02604360012282600D
:1021D0000822C26010210161402141614FF4C071A9
:1021E0008161C3614FF4006303624FF48053436223
:1021F0004FF40053836202230193092102910621C7
:102200000391049204220592069307930DEB0201B9
:1022100007F010F830B907490448FFF781FF09B00B
:102220005DF804FB00F0FDFAF5E700BF4409012466
:10223000404100527809012408B5FFF7E1FE08BDCE
:10224000F0B58FB0002409940A940B940C940D946B
:102250005F4BD3F8E02042F01002C3F8E020D3F83F
:10226000E02002F010020192019AD3F8E02042F03F
:102270002002C3F8E020D3F8E02002F0200202920E
:10228000029AD3F8E02042F08002C3F8E020D3F8AD
:10229000E02002F080020392039AD3F8E02042F09B
:1022A0000402C3F8E020D3F8E02002F00402049214
:1022B000049AD3F8E02042F00102C3F8E020D3F8FA
:1022C000E02002F001020592059AD3F8E02042F0E6
:1022D0000202C3F8E020D3F8E02002F002020692E6
:1022E000069AD3F8E02042F04002C3F8E020D3F889
:1022F000E02002F040020792079AD3F8E02042F073
:102300000802C3F8E020D3F8E03003F00803089394
:10231000089B304E22464FF4C061304603F076FAF7
:102320002D4F22469021384603F070FA7C23099302
:102330004FF488130A930B9409A9284803F09CF8DA
:10234000042309930A940B9409A9304603F094F8E6
:102350004FF4006309930A940B9409A9204803F0F1
:102360008BF84FF4C063099301250A950B940C95E3
:1023700009A9304603F080F8902309930A950B943D
:102380000C9509A9384603F077F822462146082023
:1023900002F02CF9082002F04DF9224621460920CE
:1023A00002F024F9092002F045F9224621460A20CC
:1023B00002F01CF90A2002F03DF9224621461720BE
:1023C00002F014F9172002F035F90FB0F0BD00BF8C
:1023D000004402580000025800040258001002583D
:1023E000000C025808B51548154B0360A3F178633B
:1023F000A3F57E23A3F24F63436000238360012291
:10240000C260036143618361C361036203F02AFA1E
:1024100050B90021094803F0F1FA40B900210748FA
:1024200003F040FB30B908BD00F0FBF9F1E700F024
:10243000F8F9F3E700F0F5F9F5E700BF88090124A2
:10244000005C0040F0B5BBB00446002135913691E8
:10245000379138913991C02204A830F010FB2268DE
:10246000274B9A4201D03BB0F0BD08220023CDE9B2
:10247000042304A805F070F900283ED1214CD4F8BB
:10248000E03043F00403C4F8E030D4F8E03003F067
:1024900004030193019BD4F8E03043F00103C4F836
:1024A000E030D4F8E03003F001030293029B4FF4D4
:1024B00000733593122736970025379538950426F3
:1024C000399635A9104802F0D7FF4FF48073359341
:1024D000369737953895399635A90C4802F0CCFFD8
:1024E000D4F8E83043F40003C4F8E830D4F8E83016
:1024F00003F400030393039BB5E700F092F9BDE7F3
:10250000005C0040004402580008025800000258D5
:1025100000B58FB03422002101A830F0B0FA29486C
:10252000294B0360002343608360C3604FF08052F7
:1025300002610622426182613F22C2612B22026255
:1025400040F21F22426240F2AB22826240F2292214
:10255000C26240F2B722026380F8343080F835302E
:1025600080F8363003F0B8FB28BB002201924FF40C
:10257000F071029103924FF42073049302200590AE
:10258000FF20069007924FF4806008900520099084
:102590004FF040400A900B910C938DF834208DF849
:1025A00035208DF8362001A9064803F0F3FC28B940
:1025B0000FB05DF804FB00F034F9D6E700F031F914
:1025C000F6E700BFDC090124001000502DE9F041BE
:1025D000BEB00446002139913A913B913C913D9126
:1025E000C02208A830F04BFA22686F4B9A4202D002
:1025F0003EB0BDE8F0814FF000520023CDE9082342
:102600000123129306231393022214921593169317
:102610004FF4406317934FF40073189308A805F024
:102620009BF8002840F0BD80604BD3F8E42042F0D6
:102630000802C3F8E420D3F8E42002F00802019273
:10264000019AD3F8E02042F02002C3F8E020D3F84A
:10265000E02002F020020292029AD3F8E02042F039
:102660000402C3F8E020D3F8E02002F00402039251
:10267000039AD3F8E02042F00102C3F8E020D3F837
:10268000E02002F001020492049AD3F8E02042F024
:102690000202C3F8E020D3F8E02002F00202059223
:1026A000059AD3F8E02042F04002C3F8E020D3F8C6
:1026B000E02002F040020692069AD3F8E02042F0B1
:1026C0000802C3F8E020D3F8E03003F008030793D2
:1026D000079B4FF48063399302243A9400253B957D
:1026E0003C940E263D9639A9314802F0C5FE40F2D1
:1026F000C14339933A943B953C943D9639A92D4872
:1027000002F0BAFE782339933A943B953C943D9677
:1027100039A9294802F0B0FE032339933A943B9536
:102720003C944FF00908CDF8F480244F39A938467D
:1027300002F0A2FE4FF4706339933A943B953C94B7
:102740003D9639A9384602F097FE4FF40C63399351
:102750003A943B953C943D9607F5A05739A93846E5
:1027600002F08AFE082339933A943B953C943D96B7
:1027700039A9134802F080FE4FF4A05339933A94DC
:102780003B953C94CDF8F48039A9384602F074FEAC
:102790002A462946582001F029FF582001F04AFF17
:1027A00026E700F03EF83FE70010005000440258D2
:1027B0000014025800080258000002580004025891
:1027C000000C025810B584B00024009401940294C7
:1027D000039401F051FF01238DF800308DF8014082
:1027E0004FF04042019218228DF808208DF80940E0
:1027F0008DF80A4003228DF80B208DF80C308DF8EF
:102800000D308DF80E408DF80F40684601F052FFF4
:10281000042001F03FFF04B010BD08B52FF0AAFF5F
:1028200008BD72B6FEE7000000B59DB04C22002145
:1028300009A830F024F92022002101A830F01FF966
:10284000022003F0D7FC00230093264B9A6942F440
:1028500040429A619B6903F440430093224BDA6A39
:1028600042F00102DA62DB6A03F001030093009B8D
:102870001C4B9B6913F4005FFAD0012309934FF4BA
:1028800080330A9302231293139305221492C022D9
:10289000159216930F221792189308231993002369
:1028A0001A931B9309A803F0CFFDB8B93F230193F6
:1028B00003230293002303930823049340230593E7
:1028C00006934FF480620792089304210DEB0100F8
:1028D00004F0F4FA20B91DB05DF804FBFFF7A1FF86
:1028E000FFF79FFF004802580004005808B5FFF7A3
:1028F00069FF464B5B6913F4003F13D1BFF34F8F61
:10290000BFF36F8F414B0022C3F85022BFF34F8FAC
:10291000BFF36F8F5A6942F400325A61BFF34F8F91
:10292000BFF36F8F394B5B6913F4803F27D1374B6F
:102930000022C3F88420BFF34F8FD3F88040C4F344
:102940004E3000E01846C4F3C90243F6E07303EAD0
:10295000401343EA82732D49C1F860321346013AAD
:10296000002BF2D1431E0028ECD1BFF34F8F4B69EF
:1029700043F480334B61BFF34F8FBFF36F8F00F091
:102980006FFDFFF751FFFFF75BFCFFF7BBFAFFF7A7
:10299000EFFAFFF70DFCFFF725FDFFF7B9FD00F09B
:1029A00043F800F0DBF800F0F5FA00F0DFFB00F090
:1029B000A9FB00F00FFC00F089FAFFF727FA00F0FE
:1029C000B7FA3C21124807F085FC3C21114807F07A
:1029D00081FC114807F04CF8FEF782FBFEF744FF3C
:1029E0000120FEF7BBFB00220C490D4803F080FBE1
:1029F0000020FEF739FCFEF749FFFFF7E3F901205D
:102A000000F06EFD25F078FBF9E700BF00ED00E077
:102A1000F40B0124A80B01245C0B0124000000C06E
:102A2000DC0901247047000008B50A480A4B03601E
:102A3000FF234360012282600023C360026143617F
:102A40008361C361036203F037FC00B908BDFFF77F
:102A5000E8FEFBE7840A0124005000522DE9F04112
:102A6000BAB00446002135913691379138913991A9
:102A7000C02204A830F003F82268344B9A4202D0F6
:102A80003AB0BDE8F0814FF000720023CDE9042395
:102A900004A804F061FE002855D12D4BD3F8D420B2
:102AA00042F48042C3F8D420D3F8D42002F4804208
:102AB0000192019AD3F8E02042F02002C3F8E0200E
:102AC000D3F8E02002F020020292029AD3F8E0202C
:102AD00042F00202C3F8E020D3F8E03003F0020332
:102AE0000393039BC0233593022436940025379526
:102AF000389409263996DFF8608035A9404602F0FF
:102B0000BBFC4FF4407335933694379538940A27BD
:102B1000399735A9404602F0AFFC0423359336942B
:102B20003795389439960B4E35A9304602F0A4FCFF
:102B300040233593369437953894399735A93046E4
:102B400002F09AFC9CE7FFF76CFEA6E700500052EB
:102B500000440258000402580014025808B51548F1
:102B6000154B03604FF4800343604FF400338360E0
:102B70000823C3600023036143614FF080628261D8
:102B80004FF00052C261036243628362C3624FF03E
:102B9000804242638363C363036443648364C364A6
:102BA00003654365836506F03BFC00B908BDFFF78C
:102BB00038FEFBE7D00A01240014005810B5B8B065
:102BC0000446002133913491359136913791C022DA
:102BD00002A82FF054FF22681B4B9A4201D038B054
:102BE00010BD4FF480420023CDE9022302A804F077
:102BF000B3FD30BB154BD3F8F42042F02002C3F8EC
:102C0000F420D3F8F42002F020020092009AD3F8C6
:102C1000E02042F00202C3F8E020D3F8E03003F0F5
:102C200002030193019B282333930223349300234F
:102C3000359336930823379333A9054802F01CFCDB
:102C4000CDE7FFF7EEFDD5E7001400580044025829
:102C50000004025882B0074BD3F8F42042F002027D
:102C6000C3F8F420D3F8F43003F002030193019B7E
:102C700002B0704700440258FEE7FEE7FEE7FEE7B9
:102C8000FEE770477047704708B500F017FC08BDB5
:102C900008B5042002F0D6FD08BD08B5082002F0F2
:102CA000D1FD08BD08B5102002F0CCFD08BD08B567
:102CB000202002F0C7FD402002F0C4FD08BD000046
:102CC00008B5024806F061FF08BD00BFF40B0124FF
:102CD00008B5024806F059FF08BD00BF5C0B01248F
:102CE00008B5024803F0E9F808BD00BFDC0901247B
:102CF00008B5024802F036FA08BD00BFD808012422
:102D00000120704708B52FF009FF162303604FF02C
:102D1000FF3008BD08B54FF0FF31FFF7F3FFFEE7C6
:102D200070B50C461646002506E0AFF3008021463C
:102D300001F8010B01350C46B542F6DB304670BD9B
:102D400070B50C461646002504E014F8010BAFF3ED
:102D500000800135B542F8DB304670BD4FF0FF30E2
:102D600070474FF400534B600020704701207047BC
:102D70000020704710B503460C4A0D490D48006805
:102D800040B10C4800680344521A934206D8094ADD
:102D9000136010BD0748084C0460F2E72FF0BEFE38
:102DA0000C2303604FF0FF30F3E700BF000008245E
:102DB00000040000580B012490150124314AD2F878
:102DC000883043F47003C2F888302F4B1B6803F03F
:102DD0000F03062B06D82C4A136823F00F0343F089
:102DE00007031360294B1A6842F001021A6000229F
:102DF0001A611968264A0A401A60234B1B6813F0AF
:102E0000080F06D0204A136823F00F0343F007038E
:102E100013601E4B00229A61DA611A621D499962A1
:102E20001D49D9621D4919635A639963DA631964AC
:102E30005A64196821F4802119601A66184B1A68BF
:102E4000184B1340B3F1005F03D2174B0122C3F8B4
:102E500008210E4BD3F8D43013F4805F10D10B4B04
:102E6000D3F8D42042F48052C3F8D4200F4A43F25E
:102E7000D2011160D3F8D42022F48052C3F8D420B8
:102E8000704700BF00ED00E00020005200440258EF
:102E90007FEDF6EA000202020000FF01800201015C
:102EA0000010005C0000FFFF008000510040005255
:102EB000054AD36843F00203D360034B5B6813F405
:102EC000005FFAD0704700BF0048025800B58DB0CF
:102ED0002422002103A82FF0D2FD002300930193A8
:102EE000029312484FF080420260436083604FF0CB
:102EF000FF32C26003618361012303930593099349
:102F000003A907F03FF850B90023009302936946E4
:102F1000064807F069FA28B90DB05DF804FBFFF721
:102F200080FCF1E7FFF77DFCF6E700BFF40B01241E
:102F300000B58DB02422002103A82FF0A0FD0023AE
:102F40000093019302931148114A02604360836029
:102F50004FF6FF72C26003618361012303930593FF
:102F6000099303A907F00EF850B9002300930293C8
:102F70006946064807F038FA28B90DB05DF804FB39
:102F8000FFF74FFCF1E7FFF74CFCF6E7A80B012435
:102F90000008004000B585B000230193029303931D
:102FA0000F48104A026040F2DF124260836040F234
:102FB000E733C3608023836106F026FF50B9002306
:102FC0000193039301A9064807F00EFA28B905B04A
:102FD0005DF804FBFFF725FCF1E7FFF722FCF6E7BD
:102FE0005C0B01240010004000B58BB0002305935A
:102FF00006930793089309930368B3F1804F05D0B4
:103000002A4A93422ED00BB05DF804FB284BD3F82C
:10301000E82042F00102C3F8E820D3F8E82002F0EB
:1030200001020192019AD3F8E02042F00102C3F8B4
:10303000E020D3F8E03003F001030293029B032366
:103040000593022306930123099305A9194802F069
:1030500013FA002211461C2001F0C8FA1C2001F0CE
:10306000E9FAD0E7124BD3F8E82042F00402C3F8A3
:10307000E820D3F8E82002F004020392039AD3F880
:10308000E02042F00802C3F8E020D3F8E03003F07B
:1030900008030493049B4FF44053059302230693C3
:1030A000099305A9044802F0E7F9ACE700080040DD
:1030B0000044025800000258000C025802680F4BEE
:1030C0009A4200D0704700B583B00D4BD3F8E8208A
:1030D00042F01002C3F8E820D3F8E83003F0100300
:1030E0000193019B00221146362001F07FFA362021
:1030F00001F0A0FA03B05DF804FB00BF001000402F
:103100000044025808B51748174B03604FF4E133E9
:10311000436000238360C36003610C2242618361CA
:10312000C36103624362836207F0B8FF70B9002194
:103130000C4808F0B5F860B900210A4808F01CF9FD
:1031400050B9084808F062F848B908BDFFF769FBB4
:10315000EDE7FFF766FBEFE7FFF763FBF1E7FFF74C
:1031600060FBF2E7680D0124004C004008B51748E9
:10317000174B03604FF4E133436000238360C36067
:1031800003610C2242618361C36103624362836213
:1031900007F084FF70B900210C4808F081F860B98D
:1031A00000210A4808F0E8F850B9084808F02EF85D
:1031B00048B908BDFFF735FBEDE7FFF732FBEFE756
:1031C000FFF72FFBF1E7FFF72CFBF2E7D40C01240C
:1031D0000050004008B51748174B03604FF4E13327
:1031E000436000238360C36003610C2242618361FA
:1031F000C36103624362836207F050FF70B900212C
:103200000C4808F04DF860B900210A4808F0B4F8FD
:1032100050B9084807F0FAFF48B908BDFFF701FBAD
:10322000EDE7FFF7FEFAEFE7FFF7FBFAF1E7FFF74D
:10323000F8FAF2E7400C01240010014010B5BCB0D0
:10324000044600213791389139913A913B91C0223F
:1032500006A82FF014FC2368514A934207D0514A24
:10326000934237D0504A934267D03CB010BD0222FF
:103270000023CDE9062306A804F06EFA38BB4B4BB9
:10328000D3F8E82042F40022C3F8E820D3F8E8207D
:1032900002F400220092009AD3F8E02042F00102EA
:1032A000C3F8E020D3F8E03003F001030193019B61
:1032B0004FF4C053379302233893002339933A9342
:1032C00006233B9337A93A4802F0D6F8CDE7FFF73B
:1032D000A8FAD4E702220023CDE9062306A804F0C9
:1032E0003BFA38BB314BD3F8E82042F48012C3F8E4
:1032F000E820D3F8E82002F480120292029AD3F870
:10330000E02042F00202C3F8E020D3F8E03003F0FE
:1033100002030393039B4FF44053379302233893E4
:10332000002339933A930E233B9337A9214802F0A7
:10333000A3F89AE7FFF775FAD4E701220023CDE955
:10334000062306A804F008FA38BB184BD3F8F0207F
:1033500042F01002C3F8F020D3F8F02002F010027F
:103360000492049AD3F8E02042F00202C3F8E0206D
:10337000D3F8E03003F002030593059B4FF440437C
:10338000379302233893002339933A9304233B93D2
:1033900037A9084802F070F867E7FFF742FAD4E768
:1033A000004C004000500040001001400044025812
:1033B0000000025800040258DFF838D0FFF778FD0B
:1033C000FFF7FCFC0C480D490D4A002302E0D458DD
:1033D000C4500433C4188C42F9D30A4A0A4C00235F
:1033E00001E013600432A242FBD32FF09DFBFFF7F4
:1033F0007DFA7047000008240000002468070024BC
:10340000340A0508680701248C150124FEE7000032
:10341000104B1B780BB90120704710B504464FF4D0
:103420007A70B0FBF3F30C4A1068B0FBF3F001F0D4
:103430000FF968B90F2C01D901200AE000222146BA
:103440004FF0FF3001F0D2F8044B1C60002000E088
:10345000012010BD200000241C00002424000024B2
:1034600010B5032001F0A4F803F02EFC0F498B697E
:10347000C3F303230E4AD35C03F01F03D8408B69C8
:1034800003F00F03D35C03F01F0320FA03F3094A90
:103490001360094B18600F20FFF7BAFF10B1012429
:1034A000204610BD0446FFF7D5FBF9E7004402585B
:1034B00058730308180000241C000024034B1B78D9
:1034C000034A11680B441360704700BF20000024BA
:1034D000FC0D0124014B1868704700BFFC0D01244E
:1034E00038B50446FFF7F6FF0546B4F1FF3F02D0BA
:1034F000044B1B781C44FFF7EDFF401BA042FAD39E
:1035000038BD00BF20000024014B1868000C704734
:103510000010005C0A4B1B6803F04053B3F1805F5E
:1035200008D0C36803F01C031C2B07D0C06800F050
:103530001C007047C06800F01C00704710207047E6
:103540000010005C10B430300B0A9B0003F00C0339
:10355000C45801F01F014FF01F0C0CFA01FC24EAC3
:103560000C0CC2F384628A404CEA0202C2505DF83D
:10357000044B704710B414304B0E9B0003F004034F
:10358000C458C1F304514FF0070C0CFA01FC24EAB3
:103590000C0C8A404CEA0202C2505DF8044B7047A2
:1035A000C1F313033BB9C1F3846101228A40C369AB
:1035B0001343C361704791FAA1F131B1B1FA81F1BE
:1035C00001F01F0101228A40F1E72021F8E7000005
:1035D00070B582B004460D460023019303689D49EF
:1035E0009D4A8B4218BF934207D09C4A934204D015
:1035F00040F60D319A48FFF715FA6B68062B18BF95
:103600000C2B1DD0B3F5067F00F2C280B3F5007F0E
:1036100080F0AF80B3F58C7F00F2B480B3F5807F8B
:1036200009D3A3F580738F4A22FA03F313F0010F35
:1036300000F0A88004E0122B02D0182B40F0A280EA
:10364000AB68072B00F2AD80EB6840F2FF71864A51
:103650008B4218BF934240F0AA802B69042B18BFFD
:10366000002B03D0013B022B00F2A78094F83830E6
:10367000012B00F0A8806E692068FFF74BFF40081F
:103680004FF6FF73C3409E4200F2B2802B69042BB9
:1036900004D094F83830012B00F0B080EA68724B07
:1036A0009A4200F0B1802B68704A012B18BF9342F8
:1036B00000F0B7806E4A934200F0B3806D4A9342A7
:1036C00000F0AF806C4A934200F0AB8002F186625A
:1036D0001032934200F0A580684A934200F0A18026
:1036E00002F186624032934200F09B80644A93422A
:1036F00000F0978002F1866202F58072934200F03A
:103700009080604A934200F08C8002F1042202F51E
:103710004012934200F0858002F1866202F5006259
:1037200093427ED0584A93427BD0584A934278D0F5
:10373000574A934275D0574A934272D0564A9342A1
:103740006FD0564A93426CD0554A934269D0554A3D
:10375000934266D0544A934263D0544A934260D015
:10376000534A93425DD040F62C313D48FFF75AF959
:1037700057E0A3F500733B4A22FA03F313F0010F5D
:103780007FF45EAF40F60E313548FFF74BF957E74F
:10379000B3F5407F3FF454AF40F206329342F1D18B
:1037A0004EE740F60F312E48FFF73CF94CE74FF457
:1037B00031612B48FFF736F94FE740F611312848C1
:1037C000FFF730F952E76E69E36B0133B6FBF3F6AE
:1037D0002068FFF79FFE40084FF6FF73C3409E42EC
:1037E0007FF654AF40F615311D48FFF71BF94DE742
:1037F00040F621311A48FFF715F947E740F627311F
:103800001748FFF70FF949E72268124B9A4251D047
:103810002268114B9A427AD02268104B9A4200F0EB
:10382000A88094F85030012B00F0DD82012384F849
:1038300050302268936813F0040F00F0CD80636D60
:1038400043F0200363650120002384F8503002B068
:1038500070BD00BF002002400021024000600258FD
:1038600068730308411004010000FF4702003004A0
:10387000040060080800900C1000C01040002019DF
:10388000000180210004002A002090360040C03A48
:103890000080F03E00002143000052470000844BAE
:1038A0000000B84F000084CB000052C7000021C3C5
:1038B0000000B8CF2B68A749A74A8B4218BF934294
:1038C000A6D0A64A9342A3D0A54A9342A0D002F123
:1038D0008662103293429BD0A24A934298D002F162
:1038E000042202F54012934292D002F1866202F560
:1038F000006293428CD09C4A934289D09B4A934267
:1039000086D040F632319A48FFF78CF880E72B6872
:103910009049914A8B4218BF93423FF47DAF8F4A42
:1039200093423FF479AF8E4A93423FF475AF02F170
:103930008662103293423FF46FAF8A4A93423FF45B
:103940006BAF02F1042202F5401293423FF464AFE0
:1039500002F1866202F5006293423FF45DAF834A52
:1039600093423FF459AF40F636318148FFF75AF899
:1039700052E72B687749784A8B4218BF93423FF44D
:1039800050AF764A93423FF44CAF754A93423FF4AE
:1039900048AF02F18662103293423FF442AF714A5F
:1039A00093423FF43EAF02F1042202F540129342EB
:1039B0003FF437AF6F4A93423FF433AF6E4A9342BE
:1039C0003FF42FAF6D4A93423FF42BAF40F63C31AA
:1039D0006748FFF727F824E72B68002B0ADBC3F3BF
:1039E000130100293DD1C3F3846301219940D369B8
:1039F0000B43D3612A6869682068FFF7A3FD20683C
:103A0000836813F0040300D00123826812F00802D7
:103A100000D0012252EA03062FD02268916811F0EB
:103A2000010140F0DC812B68EE68D2F8C000C3F3DE
:103A3000130C20EA0C0006F0180C514E26FA0CF676
:103A40003340C3F313030343C2F8C030EA684D4B5D
:103A50009A4200F0D0802B68002BC0F247810020F2
:103A6000F2E693FAA3F333B1B3FA83F303F01F033F
:103A700001219940BBE72023F8E7AA682968FFF7EE
:103A800079FD414B1B6803F07043B3F1805F0BD0AD
:103A90002268D36813F0100F41D16B69D268C2F36A
:103AA00082025200934006E06B692268D268C2F33A
:103AB0008202520093402969042967D0226828684D
:103AC00002F1600C5CF8212002F0004200F0F840A6
:103AD000034313434CF821306B7E012B27D8236816
:103AE00028696A7E012A28D03146603353F82020A5
:103AF00022F000420A4343F820202B7E012B1FD8DE
:103B000021682A692B7E012B20D00B6923F4F04316
:103B100002F01F0206FA02F213430B617DE76B69A4
:103B2000D268920802F0040252009340C3E740F6C4
:103B30008A310F48FEF776FFD1E74FF00041D4E716
:103B400040F68E310A48FEF76DFFD9E74FF4006664
:103B5000DBE700BF02003004040060080800900C9E
:103B60001000C0100004002A000021430000844B14
:103B700068730308002090360040C03A0080F03E91
:103B8000FFFF0F000000FF470010005C2268136E6B
:103B900003F0F8432968B3EB816F1DD02268536EA0
:103BA00003F0F8432968B3EB816F1AD02268936E53
:103BB00003F0F8432968B3EB816F17D02268D36E06
:103BC00003F0F8432968B3EB816F7FF426AFD36E1F
:103BD00023F00043D36620E7136E23F000431366FF
:103BE000DCE7536E23F000435366DFE7936E23F068
:103BF00000439366E2E720687C4B984205D07C4BFB
:103C000098422BD0FFF7CCFC25E72B68794A9342EA
:103C10004AD0794A934249D0784A934248D0784A68
:103C2000934247D002F186621032934244D0754AE3
:103C3000934243D002F1042202F5401293423FD056
:103C400002F1866202F5006293423BD06E4A9342D3
:103C50003AD06E4A9342D5D16D49D3E72B68654A75
:103C6000934233D0644A934232D0644A934231D073
:103C7000634A934230D002F18662103293422DD0D3
:103C8000604A93422CD002F1042202F54012934282
:103C900028D002F1866202F50062934224D05B4A8A
:103CA0009342AFD15A49ADE70121ABE75949A9E7A2
:103CB0005949A7E75949A5E75949A3E75949A1E750
:103CC00059499FE759499DE759499BE7012199E7E0
:103CD000504997E7504995E7504993E7504991E794
:103CE00050498FE750498DE750498BE722683F499B
:103CF0003F48824218BF8A420CBF0121002118D1DF
:103D00004C4EB56805F0E07CA9B13849886810F0E0
:103D1000010000D001203649896811F0010100D06E
:103D2000012101430CD0636D43F020036365012042
:103D30008AE5414EE5E74149896811F0010FF2D16A
:103D40003F498B4207D03F498B4226D03E498B42A8
:103D500034D0002078E515F4000FF4D1374B9A42A7
:103D600001D0002070E54CF40003B26822F0E0724C
:103D70001343B360354B1B689B09354AA2FB0323F1
:103D80009B0901335B00019302E0019B013B01931E
:103D9000019B002BF9D1002056E515F0807FD5D18D
:103DA000264B9A4201D000204EE54CF08073B26859
:103DB00022F0E0721343B360002045E515F4800F54
:103DC0000FD11E4B9A4201D000203DE54CF48003F8
:103DD000B26822F0E0721343B360002034E50020A3
:103DE00032E5002030E5022031E500BF002002402E
:103DF0000021024002003004040060080800900C1A
:103E00001000C0100004002A000021430000844B71
:103E10000000B84F400020198000501D0001802193
:103E20000002B0250008302E0010603200209036CD
:103E3000000052470023024000630258006002580D
:103E4000000084CB000052C70000B8CF1C00002443
:103E5000632D3E0538B5044603684F494F4A9342E7
:103E600018BF8B4223D14E4B9B6813F4403F14BFC5
:103E7000012300234BB303F065FA05466368B3F5ED
:103E8000003F1CD0B3F5403F1DD0B3F5803F16D0A6
:103E9000FFF73AFB41F20303984258D8414B9D4249
:103EA0004FD92268936843F48073936038BD3E4BCA
:103EB0009B6813F4403F14BF01230023DAE71B0C77
:103EC000B5FBF3F5E4E78508E2E74FF400200021B5
:103ED00004F048FE05466368B3F5101F2DD022D8C4
:103EE000B3F5E01F27D004D9B3F5001FD0D14509A1
:103EF000CEE7B3F5801F0DD006D9B3F5A01F09D0CA
:103F0000B3F5C01F06D0C3E7B3F5002F02D0B3F559
:103F1000402F04D19B0C5B00B5FBF3F5B8E7B3F57C
:103F2000802FF7D0B4E7B3F5201F08D0B3F5301FCA
:103F3000AED1050AACE70509AAE78509A8E7C509D6
:103F4000A6E72268936823F480739360AEE7174B6B
:103F50009D4205D82268936823F440739360A5E7D7
:103F6000134B9D4207D82268936823F4407343F4AF
:103F7000807393609AE70F4B9D4207D8226893683D
:103F800023F4407343F4007393608FE722689368CF
:103F900043F44073936089E700200240002102400F
:103FA00000230240002D31010063025821BCBE00F5
:103FB00041787D0181F0FA0230B583B0002301938E
:103FC000002800F0B38204460368A249A24A8B424B
:103FD00018BF934207D0A14A934204D040F2A711E0
:103FE0009F48FEF71FFD6368B3F5803F18BFB3F528
:103FF000003F25D0B3F5403F22D00BB3B3F5802F5F
:104000001ED0B3F5002F1BD0B3F5402F18D0B3F559
:10401000801F15D0B3F5A01F12D0B3F5C01F0FD06D
:10402000B3F5E01F0CD0B3F5001F09D0B3F5101F96
:1040300006D0B3F5201F03D0B3F5301F40F0B78092
:10404000A368002B18BF042B0CD0182B05D8854A69
:1040500022FA03F313F0010F04D140F2A9118048B2
:10406000FEF7E0FCE368012B00F2A780637D012BE3
:1040700000F2A980A36A002B18BFB3F5806F06D0A9
:10408000B3F5006F03D0B3F5406F40F0A280636AD0
:10409000B3F5806F18BFB3F5846F3AD0B3F5886F6E
:1040A00037D0B3F58C6F34D0B3F5906F31D0B3F512
:1040B000946F2ED0B3F5986F2BD0B3F59C6F28D0AA
:1040C000B3F5A06F25D0B3F5A46F22D0B3F5A86FD8
:1040D0001FD0B3F5AC6F1CD0B3F5B06F19D0B3F5EA
:1040E000B46F16D0B3F5B86F13D0B3F5BC6F10D062
:1040F000B3F5C06F0DD0B3F5C46F0AD0B3F5C86F78
:1041000007D0B3F5CC6F04D0B3F5D06F01D0002B3E
:1041100065D1E36A002B18BF022B03D0012B01D01D
:10412000032B62D12369042B18BF082B63D1236BA7
:10413000002B18BFB3F5805F63D1237D012B66D8B8
:1041400094F83830012B68D8E3684BB1A369013B80
:104150000F2B68D8237F012B6BD8237F012B6ED0C8
:10416000237F012B00F08880636D002B00F08E8090
:1041700023689A6812F0005F03D099683A4A0A40AF
:104180009A6023689A6812F0805F40F08D80996889
:10419000364A0A4042F080529A60354B1B689B09B0
:1041A000344AA2FB03239B090133019379E04FF4C6
:1041B000D4712B48FEF736FC42E74FF4D5712848FE
:1041C000FEF730FC52E740F2AB112548FEF72AFC1F
:1041D00050E74FF4D6712248FEF724FC57E740F22F
:1041E000AD111F48FEF71EFC93E74FF4D7711C4832
:1041F000FEF718FC96E740F2AF111948FEF712FCE3
:1042000095E74FF4D8711648FEF70CFC95E740F29D
:10421000B1111348FEF706FC92E74FF4D97110482C
:10422000FEF700FC90E74FF4DB710D48FEF7FAFB58
:1042300090E740F2B7110A48FEF7F4FB8DE7236AD6
:10424000013B072B8CD940F2BB110548FEF7EAFB76
:1042500086E700BF002002400021024000600258B3
:104260006873030800111101C0FFFF5FC0FFFF6FFB
:104270001C000024632D3E05637D012B7FF474AF89
:104280004FF4E071A048FEF7CDFB6DE72046FDF747
:1042900001FE0023A36584F8503069E7019B013BD0
:1042A0000193019B002BF9D12268936813F0805F82
:1042B00040F09A80636D43F010036365A36D43F093
:1042C0000103A3650125936813F0040300D00123C3
:1042D000616D11F0100F40F00F81002B40F00C8148
:1042E000636D23F4817343F002036365936813F0F5
:1042F000010F1ED18549864B9A4218BF8A420CBFD6
:104300000122002272D1896811F0010100D001213F
:104310007F4B9B6813F0010300D001230B4308D1AE
:10432000002A69D07B4963688A6822F47C121343AF
:104330008B60FFF7E9F841F20303984202D9A368C2
:10434000102B5BD0627D236B43EA4233A268134398
:10435000227F43EA0243227F012A5AD0626A22B1B5
:1043600002F47872A16A0A4313432168C8686A4A52
:1043700002401A43CA6021688A6812F0040200D021
:1043800001228B6813F0080300D0012313431BD1D3
:10439000227DE36A43EA8232C868604B03401343DC
:1043A000CB6094F83830012B38D02268136923F0A1
:1043B000010313612268136923F07043616B0B439F
:1043C00013612046FFF746FDE368012B00F08B8068
:1043D0002268136B23F00F031363636D23F0030351
:1043E00043F0010363658CE000256CE74C4B9B6850
:1043F00013F0010F9DD193E74A4994E7617D226B49
:1044000042EA41321343227F43EA024343F00C0362
:10441000A1E7226A013A43EA42439FE7E36B013B8B
:10442000B3F5806F41D2236C002B18BF202B17D01F
:10443000402B15D0602B13D0802B11D0A02B0FD088
:10444000C02B0DD0E02B0BD0B3F5807F08D0B3F597
:10445000907F05D0B3F5A07F02D0B3F5B07F2AD10D
:10446000636C002B18BFB3F5007F2AD1A36C40F218
:104470000142012B18BF934229D1636A0BB1A36A91
:104480000BB9636C4BBB20680269274B1340E26B8E
:10449000511E226C42EA0142616C0A43A16C0A433C
:1044A000134343F00103036184E74FF4307116486E
:1044B000FEF7B8FAB7E740F2C2211348FEF7B2FAA6
:1044C000CEE740F2C3211048FEF7ACFACEE74FF436
:1044D00031710D48FEF7A6FACFE740F2CA210A482B
:1044E000FEF7A0FACFE721680B6B23F00F03A26958
:1044F000013A13430B6370E7636D43F01003636588
:104500000125284603B030BD68730308002002402F
:10451000002102400023024003C0F0FFFCBFFFFF68
:1045200000600258006302581EF800FC0125E8E70D
:10453000002807DB00F01F02400901239340024AD4
:1045400042F82030704700BF00E100E0002804DBA3
:104550000901C9B2044B1954704700F00F0009015A
:10456000C9B2024B1954704700E400E014ED00E0BA
:1045700000B500F00700C0F1070CBCF1040F28BF24
:104580004FF0040C031D062B0FD9C31E4FF0FF3E46
:104590000EFA0CF021EA000199400EFA03FE22EA1D
:1045A0000E0241EA02005DF804FB0023EEE7000082
:1045B00010B50446C31E042B0DD80949CB6823F45B
:1045C000E0631B041B0C240204F4E0642343054A4B
:1045D0001A43CA6010BD91210348FEF723FAECE7A5
:1045E00000ED00E00000FA05B473030870B506465C
:1045F0000C4615460F2A0ED80F2C11D80B4BD86835
:104600002A462146C0F30220FFF7B2FF014630469A
:10461000FFF79CFF70BDA9210548FEF703FAEBE701
:10462000AA210348FEF7FEF9E8E700BF00ED00E02D
:10463000B473030810B5041E03DB2046FFF778FFB0
:1046400010BDBD210148FEF7EDF9F6E7B47303088C
:104650000138B0F1807F0BD24FF0E0235861054A5A
:10466000F02182F823100020986107221A61704718
:104670000120704700ED00E0BFF35F8F044B5A6AE2
:1046800022F480325A620022C3F89420704700BF9F
:1046900000ED00E040F00100054BC3F894005A6AB9
:1046A00042F480325A62BFF34F8FBFF36F8F70476F
:1046B00000ED00E010B5044643780F2B49D823786D
:1046C000012B4CD8237B012B4FD8E37A052B18BF45
:1046D000032B01D9062B4ED1A37A022B51D8637B31
:1046E000012B54D8A37B012B57D8E37B012B5AD83D
:1046F000637AFF2B5DD0237A043BDBB21B2B5ED8A1
:104700006378324AC2F89830D2F8A03023F001031F
:10471000C2F8A0306368C2F89C30217BE37A1B06A4
:1047200043EA0173A17A43EAC143617B43EA8143CF
:10473000A17B43EA4143E17B43EA0143617A43EAD7
:104740000123217A43EA410321780B43C2F8A030C8
:1047500010BD40F24D111E48FEF764F9AFE74FF46B
:10476000A7711B48FEF75EF9ACE740F24F111848FD
:10477000FEF758F9A9E74FF4A8711548FEF752F96A
:10478000AAE740F251111248FEF74CF9A7E74FF49F
:10479000A9710F48FEF746F9A4E740F253110C48FF
:1047A000FEF740F9A1E74FF4AA710948FEF73AF97C
:1047B0009EE740F255110648FEF734F99BE74FF4A7
:1047C000AB710348FEF72EF99AE700BF00ED00E059
:1047D000B473030803682749274A934218BF8B42E2
:1047E0002FD0183293422CD01832934229D018324D
:1047F000934226D01832934223D01832934220D0CD
:10480000183293421DD002F55672934219D01832D5
:10481000934216D01832934213D01832934210D0DC
:10482000183293420DD0183293420AD01832934274
:1048300007D01832934204D023F0FF038365806DC4
:10484000704710B4D9B210390C4AA2FB0142C2F32E
:1048500002120B4CA25CC2655F2907D9094A1A40B3
:1048600004328265806D5DF8044B7047054A1A403A
:104870008265F7E71000024028000240ABAAAAAA0E
:104880005074030800FCFFFF83699BB9836A012B06
:104890000AD0022B02D00BB100207047C36A13F07C
:1048A000807F2AD100207047C36AB3F1C07F26D031
:1048B00000207047B3F5005F0AD0836A022B26D927
:1048C000032B26D1C36A13F0807F24D100207047C8
:1048D000836A032B03D8DFE803F01404140A0020D2
:1048E0007047C36A13F0807F0DD100207047C36A00
:1048F000B3F1C07F09D0002070470120704701202C
:104900007047012070470120704701207047012047
:10491000704700207047012070470000036821495C
:10492000214A934218BF8B4227D01432934224D09D
:104930001432934221D0143293421ED01432934247
:104940001BD01432934218D01432934215D0DAB2ED
:10495000103A1649A1FB0212120915491944A82957
:104960001ED9144B13449B000366134B436602F09D
:104970001F020123934083667047DBB2083B0F4A56
:10498000A2FB03230E4A02EB1312920002660D4AA9
:104990004266C3F30413012202FA03F383667047ED
:1049A0000832DEE7085402581C540258ABAAAAAADF
:1049B000F0FBFDBF0082001080080240CDCCCCCCC3
:1049C000009600168058025801794A1E072A2BD8F3
:1049D00030B40368154D164CA34218BFAB4218D033
:1049E0001434A34215D01434A34212D01434A34279
:1049F0000FD01434A3420CD01434A34209D0143481
:104A0000A34206D00B4B0B449B00C3660A4B0367C3
:104A100005E00A4B0B449B00C366094B0367012367
:104A20009340436730BC7047704700BF085402583A
:104A30001C5402583F820010400902403F96001665
:104A40004059025870B50446FEF744FD002C00F0B2
:104A5000DC82054623688849884A8B4218BF934206
:104A600046D01832934243D01832934240D0183285
:104A700093423DD0183293423AD01832934237D005
:104A80001832934234D002F55672934230D0183225
:104A900093422DD0183293422AD01832934227D015
:104AA0001832934224D01832934221D018329342C4
:104AB0001ED0183293421BD0714A934218D0143240
:104AC000934215D01432934212D0143293420FD035
:104AD000143293420CD01432934209D014329342D0
:104AE00006D01432934203D0E6216648FDF79AFFC0
:104AF000A368002B18BF402B02D0802B40F0998078
:104B0000E368B3F5007F18BF002B40F0978023695E
:104B1000B3F5806F18BF002B40F095806369002BC0
:104B200018BFB3F5006F03D0B3F5805F40F09080FD
:104B3000A369002B18BFB3F5005F03D0B3F5804F16
:104B400040F08B80E369002B18BFB3F5807F08D05D
:104B5000202B06D0B3F5802F03D0B3F5402F40F0C3
:104B60008180236A002B18BFB3F5803F05D0B3F5D1
:104B7000003F02D0B3F5403F79D123683E493F4A18
:104B8000934218BF8B4200F08380183293427FD04B
:104B9000183293427CD01832934279D01832934223
:104BA00076D01832934273D01832934270D002F507
:104BB000567293426CD01832934269D018329342A5
:104BC00066D01832934263D01832934260D01832C4
:104BD00093425DD0183293425AD01832934257D044
:104BE000274A29498B4218BF93420CBF0122002259
:104BF00000F0A68125498B4200F0A28114318B423E
:104C000000F09E8114318B4200F09A8114318B4266
:104C100000F0968114318B4200F0928114318B4266
:104C200000F08E8140236365032384F83530012032
:104C3000BDE0E7211348FDF7F5FE61E7E8211148E3
:104C4000FDF7F0FE63E7E9210E48FDF7EBFE65E7AF
:104C5000EA210C48FDF7E6FE6AE7EB210948FDF77B
:104C6000E1FE6FE7EC210748FDF7DCFE79E7ED2177
:104C70000448FDF7D7FE80E71000024028000240FC
:104C800008540258047403081C5402583054025843
:104C90006368732B5ED8636A002B18BF042B5ED148
:104CA000636AD3B1A36A032B5ED8E36A002B18BFF3
:104CB000B3F5000F05D0B3F1807F02D0B3F1C07F10
:104CC00057D1236B002B18BFB3F5001F05D0B3F5E8
:104CD000800F02D0B3F5C00F50D1022384F83530D5
:104CE000002384F8343023688E498F4A934218BFDA
:104CF0008B4248D01832934245D01832934242D06A
:104D0000183293423FD0183293423CD0183293422B
:104D100039D01832934236D002F55672934232D0CF
:104D2000183293422FD0183293422CD0183293422B
:104D300029D01832934226D01832934223D0183209
:104D4000934220D0183293421DD01A6822F00102FB
:104D50001A601CE0F1217548FDF764FE9BE7F22123
:104D60007248FDF75FFE9BE7F7217048FDF75AFE9A
:104D70009BE7F8216D48FDF755FEA2E7F9216B4846
:104D8000FDF750FEA9E71A6822F001021A602368B5
:104D90001A6812F0010F0BD0FEF79CFB401B052890
:104DA000F5D920236365032384F83530012070BDD5
:104DB0001A685F491140A268E06802432069024313
:104DC00060690243A0690243E0690243206A02432A
:104DD0000A43616A042900F09A80564908685649D6
:104DE0000140B1F1005F11D36168A1F12905A1F182
:104DF0003F00032888BF052D06D9A1F147000128EF
:104E000002D94F39032901D842F480121A6026686A
:104E1000756925F00705636A1D43042B08D1A36A51
:104E20001D43E36A23B12046FFF72EFD002873D10E
:104E300075612046FFF7CEFCE36D03F01F023F23B0
:104E40009340836023683749374A934218BF8B42A7
:104E500042D0183293423FD0183293423CD018329D
:104E6000934239D01832934236D01832934233D01D
:104E70001832934230D002F5567293422CD0183239
:104E8000934229D01832934226D01832934223D02D
:104E90001832934220D0183293421DD018329342D8
:104EA0001AD01832934217D0244A934214D01432A5
:104EB000934211D0143293420ED0143293420BD04D
:104EC0001432934208D01432934205D014329342E4
:104ED00002D01432934214D12046FFF71FFDA3687D
:104EE000802B00F08580236E22791A60636EA26E9B
:104EF0005A606368013B072B7DD90023E366236773
:104F0000636700206065012384F835304FE7E16A6C
:104F1000206B01430A4360E740236365012084F866
:104F2000350044E7100002402800024004740308E2
:104F30003F8010FE0010005C0000FFFF0854025884
:104F40008AB9334A93420ED0143293420BD01432B2
:104F5000934208D01432934205D01432934202D0C7
:104F60001432934202D16368112B36D8022384F89D
:104F70003530002384F8343021680B68254A1A4004
:104F8000A368402B32D0802B2DD00023E06843EA69
:104F9000D003206943EAD003606943EAD003A069E3
:104FA00043EAD003E06943EAD003206A43EA1013DE
:104FB00013430B602268184B1344184AA2FB0323C7
:104FC0001B099B00E3652046FFF704FCE26D02F03D
:104FD0001F0101228A40426034E740F26B11104801
:104FE000FDF720FDC2E74FF48043CFE71023CDE764
:104FF0000023636077E72046FFF7E6FCE36E0022BC
:105000001A60236F626F5A607BE70120CFE600BF12
:10501000305402580F00FEFFF8ABFDA7CDCCCCCC2E
:1050200004740308002800F08E8010B5044602685E
:10503000464B9A4203D0F7214548FDF7F3FC6368DD
:10504000002B18BFB3F5803F0BD0B3F5003F08D05D
:10505000B3F5403F05D0B3F5802F02D0B3F5A02FB4
:1050600048D1A368042B4AD8E368B3F5803F4BD2FC
:105070002369012B4DD86369012B4FD8E369002BBD
:1050800018BF402B4FD1A369002B18BFB3F5807F09
:105090004ED194F86130002B4FD0022384F8613058
:1050A00021680A682B4B13406268E069024313438E
:1050B0000B6021684A6B284B1340A268A069024329
:1050C00013434B632268116C244B0B40E1680B4384
:1050D000136421684B6B23F4401320696269520505
:1050E00042EA005213434B6300206066012384F8B8
:1050F000613010BDF8211648FDF794FCB1E7F921A5
:105100001348FDF78FFCAFE7FA211148FDF78AFC41
:10511000AEE7FB210E48FDF785FCACE7FC210C480F
:10512000FDF780FCAAE7FD210948FDF77BFCAAE713
:10513000FE210748FDF776FCABE784F86030204697
:10514000FCF73AFFA9E70120704700BF00100052AA
:1051500058740308BFFFF8FFF8FEFFFF0000FFFFD1
:105160007047704770B5044603685D681E6815F0A7
:10517000010F16D016F4807F13D01A6822F48072C3
:105180001A60436E43F001034366036801229A608C
:10519000042380F86130002380F86030436A03B153
:1051A000984715F0200F18D016F4005F15D022682C
:1051B000136823F400531360236820229A60636EFF
:1051C00043F002036366042384F86130002384F80B
:1051D0006030636A0BB12046984715F0080F18D06D
:1051E00016F4006F15D02268136823F4006313606F
:1051F000236808229A60636E43F004036366042305
:1052000084F86130002384F86030636A0BB1204673
:10521000984715F0040F02D016F4806F20D115F0D6
:10522000020F16D016F4007F13D02268136823F4FF
:1052300000731360236802229A60636E6366012321
:1052400084F86130002384F86030236A0BB1204673
:10525000984715F0100F02D016F4805F0CD170BD86
:105260002268136823F480631360236804229A6021
:105270002046FFF775FFD2E72268136823F48053B6
:105280001360236810229A60636E6366012384F8BA
:105290006130002384F860302046FFF762FFDEE7CC
:1052A00038B505460C46012969D8C4EBC40305EBA3
:1052B00083039B6AB3F5803F67D26B68B3F5403FC9
:1052C0000FD0C4EBC40305EB8303DB6A0B2B62D85E
:1052D0006B6833B1C4EBC40305EB83031B6B022B78
:1052E0005FD8C4EBC40305EB83039B6B012B5ED833
:1052F000C4EBC40305EB8303DB6B012B5DD8012CEE
:1053000061D095F86030012B00F0AB80012385F867
:105310006030022385F86130C4EBC40205EB8202E1
:10532000D16A136B41EA0343906B43EA0053D26B9B
:1053300043EA4253A1F10902012A58D9C4EBC4023D
:1053400005EB8202526B43EA0263002C62D12968AA
:10535000486A454A02401A434A622A68C4EBC403B9
:1053600005EB8303996A9161DB6A093B012B47D9FD
:10537000012385F86130002085F8600038BD40F2D7
:10538000F3613A48FDF74EFB8FE740F2F46137488E
:10539000FDF748FB91E740F2F7613448FDF742FB27
:1053A00096E740F2FA613148FDF73CFB99E740F29D
:1053B000FD612E48FDF736FB9AE740F2FE612B486F
:1053C000FDF730FB9BE7C4EBC40305EB8303DB6A0B
:1053D0000B2B96D1C4EBC40305EB83031B6C022B90
:1053E0008FD940F202712148FDF71CFB89E7C4EB1D
:1053F000C40205EB8202526B02F07F421343A4E722
:10540000C4EBC40405EB8404636B2A6823F07F4378
:105410009362ADE70B291BD015482968CA6922EAB7
:1054200000021343CB612A68C4EBC40305EB83037A
:10543000996A1161DB6A093B012B99D8C4EBC4045A
:1054400005EB8404636B2A6823F07F4313628FE7C4
:10545000C4EBC40205EB8202126C43EA82430548A6
:10546000DBE702208AE700BFF0FFCC005874030896
:105470000F0033FF0F003FFF2DE9F04383B080465C
:105480000C466D4A6D4B904218BF984214BF4FF0C6
:1054900001094FF000092BD003F50063C31A18BFB0
:1054A000012302F50062904222D00BB3644BC31A71
:1054B00018BF012302F50062904219D0C3B1614BBD
:1054C000C31A18BF012302F50062904210D07BB1CD
:1054D0005D4BC31A18BF012302F50062904207D04A
:1054E00033B15A4B984203D0B3215948FDF79AFA89
:1054F00023689AB212B1B3F5803F03D3B421544864
:10550000FDF790FA6368112B18BF012B0FD9B3F583
:10551000041F0CD010D8B3F5881F08D003D9B3F5F9
:10552000901F04D011E0032B03D9122B0DD10025BD
:10553000D2E0022B09D3FAE7B3F5441FF7D0B3F555
:10554000481FF4D0B3F5081FF1D0B5214048FDF74E
:1055500069FAECE7E368032B17D8D8F8082069004C
:1055600003238B4022EA0302E3688B401343C8F80D
:105570000830D8F8042022EA07026368C3F3001356
:10558000AB401343C8F80430B6E0C4213048FDF7FF
:1055900049FAE2E7D6212E48FDF744FAB5E0B9F121
:1055A000000F2DD02B4BB8EB030318BF01232A4A61
:1055B000904525D023B3224BB8EB030318BF01233A
:1055C00002F5006290451BD0D3B11E4BB8EB03032C
:1055D00018BF012302F50062904511D083B11A4B28
:1055E000B8EB030318BF012302F50062904507D012
:1055F00033B1164B984503D0E3211548FDF712FA55
:1056000023690F2B10D8EA08083258F8220005F059
:10561000070189000F238B4020EA030023698B4098
:10562000034348F8223082E0E4210948FDF7FAF903
:10563000E9E7092313E000BF000002580004025804
:1056400000140258001C0258002402580028025876
:10565000A8740308000C02580008025800238B406D
:1056600003430232664941F822304FF0B0431A68D2
:10567000F34322EA0601606810F4801F01D046EA75
:1056800002014FF0B0421160526803EA0201606803
:1056900010F4001F01D046EA02014FF0B042516001
:1056A000D2F8842003EA0201606810F4003F01D0C0
:1056B00046EA02014FF0B042C2F88410D2F88020CE
:1056C0001340616811F4803F01D046EA02034FF0B5
:1056D000B042C2F880300135266836FA05F200F093
:1056E0008C800127AF403E40F5D0636803F0030390
:1056F000013B012B7FF62EAF636803F00303032BFE
:105700000FD0A368022B3FF645AFD8F80C206900F4
:1057100003238B4022EA0302A3688B401343C8F89B
:105720000C30636803F00303022B3FF438AFD8F862
:105730000020690003238B4022EA0302636803F020
:1057400003038B401343C8F80030636813F4403FF1
:10575000C1D02C4BD3F8F42042F00202C3F8F4205D
:10576000D3F8F43003F002030193019BAA08911CC3
:10577000234B53F8210005F0030189000F238B40D0
:1057800020EA0300204B98453FF468AF03F580639F
:10579000984522D003F58063984520D003F58063B7
:1057A00098451ED003F5806398451CD003F58063AF
:1057B00098451AD003F58063984518D003F58063A7
:1057C000984516D003F58063984514D003F580639F
:1057D00098453FF42EAF0A2341E701233FE7022318
:1057E0003DE703233BE7042339E7052337E7062397
:1057F00035E7072333E7082331E703B0BDE8F0833B
:1058000000040058004402580000025870B50546D4
:1058100014460E4621B1012C08D86CB1AE6170BDA2
:105820004FF4D5710648FDF7FDF8F4E740F2AB11EF
:105830000348FDF7F7F8F0E73604AE61EFE700BF85
:10584000A874030808B54FF0B043D3F8883003427A
:1058500000D108BD4FF0B043C3F88800FCF7DDFF6E
:10586000F7E70000002800F0BC8010B5044603688C
:105870005D495E4A8B4218BF93420BD002F58062AD
:10588000934207D05A4A934204D04FF408715948C2
:10589000FDF7C8F8A368B3F5806F66D2E368013BF3
:1058A000012B68D82369002B18BFB3F5004F68D1CE
:1058B0006369FF2B6BD8A369072B6ED8E369002BB4
:1058C00018BFB3F5002F6ED1236A002B18BFB3F5B4
:1058D000003F6ED194F84130002B70D0242384F81F
:1058E00041302268136823F0010313606368226863
:1058F00023F0706313612268936823F4004393607C
:10590000E368012B61D0A368226843F404439360E9
:10591000E368022B5FD02268536823F4006353606E
:1059200022685168344B0B4353602268D36823F4D8
:105930000043D360236962691343A169226843EA83
:105940000123D360E369216A22680B431360226854
:10595000136843F00103136000206064202384F87F
:105960004130206384F8420010BD40F221212148DB
:10597000FDF758F892E740F222211E48FDF752F851
:1059800090E740F223211B48FDF74CF890E74FF4D5
:1059900009711848FDF746F88DE740F225211548B2
:1059A000FDF740F88AE740F226211248FDF73AF861
:1059B0008AE740F227210F48FDF734F88AE784F898
:1059C00040302046FCF73EFD88E7A368226843F498
:1059D000004393609CE72268536843F4006353607C
:1059E0009EE70120704700BF00540040005800406F
:1059F000001C0058F87403080080000238B5044603
:105A00000D4603682349244A8B4218BF93420AD0AB
:105A100002F58062934206D0204A934203D063216C
:105A20001F48FCF7FFFF002D18BFB5F5805F28D198
:105A300094F84130DBB2202B28D194F84030012B70
:105A400026D0012384F84030242384F84130226892
:105A5000136823F0010313602268136823F4805352
:105A60001360226813682B4313602268136843F0A5
:105A700001031360202384F84130002084F84000A3
:105A800038BD64210648FCF7CDFFD1E70220F7E7D7
:105A90000220F5E70054004000580040001C005868
:105AA0004475030838B504460D4603682149224A67
:105AB0008B4218BF93420AD002F58062934206D00F
:105AC0001E4A934203D091211D48FCF7ABFF0F2DD6
:105AD00026D894F84130DBB2202B26D194F8403000
