:020000040800F2
:100000000000082431330008F12B0008F32B00080E
:10001000F52B0008F72B0008F92B00080000000062
:10002000000000000000000000000000FB2B0008A2
:10003000FD2B000800000000FF2B0008012C000829
:1000400085330008853300088533000885330008B0
:1000500085330008853300088533000885330008A0
:10006000092C0008132C00081D2C000885330008FB
:100070008533000885330008853300088533000880
:100080008533000885330008853300088533000870
:10009000853300088533000885330008272C0008C5
:1000A0008533000885330008853300088533000850
:1000B000392C000885330008853300088533000893
:1000C0008533000885330008853300088533000830
:1000D0008533000885330008853300088533000820
:1000E00085330008853300080000000085330008D0
:1000F0008533000885330008853300088533000800
:1001000085330008853300088533000885330008EF
:100110008533000885330008492C00088533000822
:1001200085330008853300088533000885330008CF
:1001300085330008853300088533000885330008BF
:1001400000000000000000000000000000000000AF
:10015000853300088533000885330008853300089F
:10016000853300088533000885330008853300088F
:10017000853300088533000885330008000000003F
:10018000853300088533000885330008853300086F
:10019000853300088533000885330008853300085F
:1001A000592C000885330008692C000885330008A5
:1001B000853300088533000885330008853300083F
:1001C000853300088533000885330008853300082F
:1001D000853300088533000885330008853300081F
:1001E000853300088533000885330008853300080F
:1001F00085330008853300088533000885330008FF
:1002000085330008853300088533000885330008EE
:1002100085330008853300088533000885330008DE
:10022000853300088533000885330008000000008E
:10023000853300088533000800000000853300087E
:1002400085330008853300088533000885330008AE
:10025000853300088533000885330008853300089E
:10026000853300088533000885330008853300088E
:10027000853300088533000885330008000000003E
:10028000853300088533000885330008000000002E
:080290000000000085330008A6
:1002A00010B5054C237833B9044B13B10448AFF3B0
:1002B00000800123237010BD6807002400000000A7
:1002C0000010010808B5034B1BB103490348AFF305
:1002D000008008BD000000006C0700240010010829
:1002E0007BB972B90029BEBF00204FF0004106E083
:1002F00008BF00281CBF6FF000414FF0FF3000F036
:10030000B5B9ADF1080C6DE904CE002909DB002B6D
:100310001ADB00F04DF8DDF804E0DDE9022304B05B
:100320007047404261EB4101002B1BDB00F040F8BD
:10033000DDF804E0DDE9022304B0404261EB410155
:10034000524263EB43037047524263EB430300F0B6
:100350002FF8DDF804E0DDE9022304B0404261EB50
:1003600041017047524263EB430300F021F8DDF88E
:1003700004E0DDE9022304B0524263EB430370471B
:1003800053B94AB9002908BF00281CBF4FF0FF31FC
:100390004FF0FF3000F06AB9ADF1080C6DE904CE02
:1003A00000F006F8DDF804E0DDE9022304B0704750
:1003B0002DE9F047089D0C46002B4ED194468C4504
:1003C0008646B2FA82F262D94AB1C2F12003914064
:1003D00020FA03F30CFA02FC194300FA02FE4FEA7A
:1003E0001C471FFA8CF6B1FBF7F44FEA1E4307FBDC
:1003F000141143EA014304FB06F199420AD91CEBAC
:10040000030304F1FF3080F01281994240F20F8122
:10041000023C6344591A1FFA8EF3B1FBF7F007FB55
:10042000101143EA014300FB06F69E420AD91CEB79
:10043000030300F1FF3180F0FC809E4240F2F9801E
:10044000634402389B1B40EA044000211DB1D340A5
:100450000022C5E90032BDE8F0878B4205D90DB115
:10046000C5E9000100210846F5E7B3FA83F1002948
:1004700046D1A34202D39042C0F0F080861A64EBCA
:1004800003030120002DE6D0C5E90063E3E7002A5D
:1004900040F09080A1EB0C044FEA1C481FFA8CF747
:1004A0000121B4FBF8F64FEA1E4308FB164443EA69
:1004B000044307FB06F0984208D91CEB030306F13E
:1004C000FF3402D2984200F2CD8026461C1A1FFA51
:1004D0008EF3B4FBF8F008FB104443EA044300FB3E
:1004E00007F79F4208D91CEB030300F1FF3402D247
:1004F0009F4200F2B0802046DB1B40EA0640A5E7A1
:10050000C1F120068B4022FA06F71F4320FA06FCB1
:1005100004FA01F343EA0C03F44000FA01F8380C42
:100520004FEA1349B4FBF0FE1FFA87FC00FB1E44A0
:1005300049EA04440EFB0CF9A14502FA01F20AD97A
:100540003C190EF1FF3A80F08480A14540F2818091
:10055000AEF1020E3C44A4EB09041FFA83F9B4FB8C
:10056000F0F300FB134449EA044403FB0CFCA445EC
:1005700007D93C1903F1FF3067D2A44565D9023B86
:100580003C4443EA0E40A0FB0293A4EB0C049C42C3
:10059000CE469C4651D34ED055B1B8EB0E0364EB1A
:1005A0000C0404FA06F6CB401E43CC40C5E90064B7
:1005B000002150E7C2F1200320FA03F10CFA02FCFB
:1005C00024FA03F394400C434FEA1C4800FA02FE5D
:1005D0001FFA8CF7B3FBF8F008FB1031230C43EA49
:1005E000014300FB07F1994208D91CEB030300F11A
:1005F000FF362CD299422AD9023863445B1AA4B23E
:10060000B3FBF8F108FB113344EA034401FB07F3A1
:10061000A34208D91CEB040401F1FF3613D2A34214
:1006200011D902396444E41A41EA004139E7044629
:10063000F0E6084606E7C845AED2B9EB020E63EB1A
:10064000070C0138A8E73146EDE7034699E7304645
:10065000D4E7D6467FE7634402384DE70646234693
:1006600008460FE7023E634430E700BF704700BF13
:1006700001F0FF01102A2BDB10F0070F08D010F853
:10068000013B013A8B422DD010F0070F42B3F6D157
:10069000F0B441EA012141EA014122F007047FF070
:1006A00000070023F0E80256083C85EA010586EAC7
:1006B000010685FA47F5A3FA87F586FA47F6A5FA03
:1006C00087F68EB9EED1F0BC01F0FF0102F007020F
:1006D00032B110F8013B013A83EA010313B1F8D1BA
:1006E0000020704701387047002D06BF354603389B
:1006F000073815F0010F07D1013015F4807F02BFD4
:10070000013015F4C03F0130F0BC0138704700BF24
:10071000034613F8012B002AFBD1181A0138704741
:1007200081F0004102E000BF83F0004330B54FEAA2
:1007300041044FEA430594EA050F08BF90EA020F0F
:100740001FBF54EA000C55EA020C7FEA645C7FEAA2
:10075000655C00F0E2804FEA5454D4EB5555B8BFC5
:100760006D420CDD2C4480EA020281EA030382EA36
:10077000000083EA010180EA020281EA0303362DC8
:1007800088BF30BD11F0004F4FEA01314FF4801C9B
:100790004CEA113102D0404261EB410113F0004FAD
:1007A0004FEA03334CEA133302D0524263EB430364
:1007B00094EA050F00F0A780A4F10104D5F1200E02
:1007C0000DDB02FA0EFC22FA05F2801841F100015D
:1007D00003FA0EF2801843FA05F359410EE0A5F131
:1007E00020050EF1200E012A03FA0EFC28BF4CF062
:1007F000020C43FA05F3C01851EBE37101F0004518
:1008000007D54FF0000EDCF1000C7EEB00006EEB24
:100810000101B1F5801F1BD3B1F5001F0CD34908AE
:100820005FEA30004FEA3C0C04F101044FEA445205
:1008300012F5800F80F09A80BCF1004F08BF5FEA8C
:10084000500C50F1000041EB045141EA050130BD6C
:100850005FEA4C0C404141EB0101013C28BFB1F57E
:10086000801FE9D291F0000F04BF01460020B1FAC9
:1008700081F308BF2033A3F10B03B3F120020CDA9C
:100880000C3208DD02F1140CC2F10C0201FA0CF07A
:1008900021FA02F10CE002F11402D8BFC2F1200CDF
:1008A00001FA02F120FA0CFCDCBF41EA0C01904095
:1008B000E41AA2BF01EB0451294330BD6FEA0404DE
:1008C0001F3C1CDA0C340EDC04F11404C4F12002C9
:1008D00020FA04F001FA02F340EA030021FA04F3DB
:1008E00045EA030130BDC4F10C04C4F1200220FA32
:1008F00002F001FA04F340EA0300294630BD21FA70
:1009000004F0294630BD94F0000F83F4801306BF35
:1009100081F480110134013D4EE77FEA645C18BF29
:100920007FEA655C29D094EA050F08BF90EA020FC0
:1009300005D054EA000C04BF1946104630BD91EAB8
:10094000030F1EBF0021002030BD5FEA545C05D1BB
:100950004000494128BF41F0004130BD14F58004FA
:100960003CBF01F5801130BD01F0004545F0FE416E
:1009700041F470014FF0000030BD7FEA645C1ABFA3
:10098000194610467FEA655C1CBF0B46024650EADA
:10099000013406BF52EA033591EA030F41F4002106
:1009A00030BD00BF90F0000F04BF0021704730B58C
:1009B0004FF4806404F132044FF000054FF0000161
:1009C00050E700BF90F0000F04BF0021704730B522
:1009D0004FF4806404F1320410F0004548BF4042F7
:1009E0004FF000013EE700BF42004FEAE2014FEA4C
:1009F00031014FEA02701FBF12F07F4393F07F4F27
:100A000081F06051704732F07F4208BF704793F029
:100A10007F4F04BF41F40021704730B54FF460743C
:100A200001F0004521F000411CE700BF50EA01023F
:100A300008BF704730B54FF000050AE050EA0102E8
:100A400008BF704730B511F0004502D5404261EB58
:100A500041014FF4806404F132045FEA915C3FF499
:100A6000D8AE4FF003025FEADC0C18BF03325FEA36
:100A7000DC0C18BF033202EBDC02C2F1200300FAE7
:100A800003FC20FA02F001FA03FE40EA0E0021FA0C
:100A900002F11444BDE600BF70B54FF0FF0C4CF4FA
:100AA000E06C1CEA11541DBF1CEA135594EA0C0FAC
:100AB00095EA0C0F00F0DEF82C4481EA030621EAE7
:100AC0004C5123EA4C5350EA013518BF52EA033522
:100AD00041F4801143F4801338D0A0FB02CE4FF0D4
:100AE0000005E1FB02E506F00042E0FB03E54FF004
:100AF0000006E1FB03569CF0000F18BF4EF0010EFC
:100B0000A4F1FF04B6F5007F64F5407404D25FEAF7
:100B10004E0E6D4146EB060642EAC62141EA5551AA
:100B20004FEAC52040EA5E504FEACE2EB4F1FD0CEC
:100B300088BFBCF5E06F1ED8BEF1004F08BF5FEA6A
:100B4000500E50F1000041EB045170BD06F000461C
:100B500046EA010140EA020081EA0301B4EB5C04C9
:100B6000C2BFD4EB0C0541EA045170BD41F48011C1
:100B70004FF0000E013C00F3AB8014F1360FDEBFE6
:100B8000002001F0004170BDC4F10004203C35DAC2
:100B90000C341BDC04F11404C4F1200500FA05F345
:100BA00020FA04F001FA05F240EA020001F00042E6
:100BB00021F0004110EBD37021FA04F642EB06015C
:100BC0005EEA430E08BF20EAD37070BDC4F10C0486
:100BD000C4F1200500FA04F320FA05F001FA04F24A
:100BE00040EA020001F0004110EBD37041F1000136
:100BF0005EEA430E08BF20EAD37070BDC4F1200541
:100C000000FA05F24EEA020E20FA04F301FA05F2A8
:100C100043EA020321FA04F001F0004121FA04F250
:100C200020EA020000EBD3705EEA430E08BF20EA20
:100C3000D37070BD94F0000F0FD101F0004640005A
:100C400041EB010111F4801F08BF013CF7D041EADC
:100C5000060195F0000F18BF704703F000465200E0
:100C600043EB030313F4801F08BF013DF7D043EAB1
:100C70000603704794EA0C0F0CEA135518BF95EA67
:100C80000C0F0CD050EA410618BF52EA4306D1D1EE
:100C900081EA030101F000414FF0000070BD50EA0D
:100CA000410606BF1046194652EA430619D094EA97
:100CB0000C0F02D150EA013613D195EA0C0F05D181
:100CC00052EA03361CBF104619460AD181EA0301D5
:100CD00001F0004141F0FE4141F470014FF000008D
:100CE00070BD41F0FE4141F4780170BD70B54FF028
:100CF000FF0C4CF4E06C1CEA11541DBF1CEA1355A8
:100D000094EA0C0F95EA0C0F00F0A7F8A4EB050489
:100D100081EA030E52EA03354FEA013100F0888080
:100D20004FEA03334FF0805545EA131343EA126349
:100D30004FEA022245EA111545EA10654FEA0026FE
:100D40000EF000419D4208BF964244F1FD0404F5B7
:100D5000407402D25B084FEA3202B61A65EB030513
:100D60005B084FEA32024FF480104FF4002CB6EBD0
:100D7000020E75EB030E22BFB61A754640EA0C0050
:100D80005B084FEA3202B6EB020E75EB030E22BF90
:100D9000B61A754640EA5C005B084FEA3202B6EBD1
:100DA000020E75EB030E22BFB61A754640EA9C0090
:100DB0005B084FEA3202B6EB020E75EB030E22BF60
:100DC000B61A754640EADC0055EA060E18D04FEA1E
:100DD000051545EA16754FEA06164FEAC30343EABE
:100DE00052734FEAC2025FEA1C1CC0D111F4801F8B
:100DF0000BD141EA00014FF000004FF0004CB6E784
:100E000011F4801F04BF01430020B4F1FD0C88BF22
:100E1000BCF5E06F3FF6AFAEB5EB030C04BFB6EB2D
:100E2000020C5FEA500C50F1000041EB045170BD20
:100E30000EF0004E4EEA113114EB5C04C2BFD4EB4D
:100E40000C0541EA045170BD41F480114FF0000ED1
:100E5000013C90E645EA060E8DE60CEA135594EA4D
:100E60000C0F08BF95EA0C0F3FF43BAF94EA0C0F50
:100E70000AD150EA01347FF434AF95EA0C0F7FF4C5
:100E800025AF104619462CE795EA0C0F06D152EA19
:100E900003353FF4FDAE1046194622E750EA4106FD
:100EA00018BF52EA43067FF4C5AE50EA41047FF40E
:100EB0000DAF52EA43057FF4EBAE12E74FF0FF3C73
:100EC00006E000BF4FF0010C02E000BF4FF0010C44
:100ED0004DF804CD4FEA410C7FEA6C5C4FEA430CBD
:100EE00018BF7FEA6C5C1BD001B050EA410C0CBF0C
:100EF00052EA430C91EA030F02BF90EA020F00206E
:100F0000704710F1000F91EA030F58BF994208BFD4
:100F100090422CBFD8176FEAE37040F00100704791
:100F20004FEA410C7FEA6C5C02D150EA013C07D1E8
:100F30004FEA430C7FEA6C5CD6D152EA033CD3D033
:100F40005DF8040B704700BF8446104662468C462D
:100F50001946634600E000BF01B5FFF7B7FF002860
:100F600048BF10F1000F01BD4DF808EDFFF7F4FF89
:100F70000CBF012000205DF808FB00BF4DF808ED14
:100F8000FFF7EAFF34BF012000205DF808FB00BF37
:100F90004DF808EDFFF7E0FF94BF012000205DF859
:100FA00008FB00BF4DF808EDFFF7CEFF94BF01200E
:100FB00000205DF808FB00BF4DF808EDFFF7C4FF07
:100FC00034BF012000205DF808FB00BF4FEA410C50
:100FD0007FEA6C5C02D150EA013C0AD14FEA430C33
:100FE0007FEA6C5C02D152EA033C02D14FF0000070
:100FF00070474FF0010070474FEA410212F50012AE
:1010000015D211D56FF47873B3EB625212D94FEA4F
:10101000C12343F0004343EA505311F0004F23FA39
:1010200002F018BF404270474FF00000704750EA8E
:10103000013005D111F0004008BF6FF0004070474B
:101040004FF00000704700BF10B40D4CA47954B9A4
:10105000019C20600298016003990A60049A136061
:101060005DF8044B7047019C216040F27F218A1A91
:10107000029C2260039A1360091A049B1960EFE72F
:101080000C00002420F01F0200F01F00084400F1B3
:101090001F0323F01F03002B0CDDBFF34F8F064906
:1010A000C1F868222032203B002BF8DCBFF34F8FC1
:1010B000BFF36F8F704700BF00ED00E020F01F020C
:1010C00000F01F00084400F11F0323F01F03002B52
:1010D0000CDDBFF34F8F0649C1F85C222032203B64
:1010E000002BF8DCBFF34F8FBFF36F8F704700BF4B
:1010F00000ED00E010B4064CA4685B1AC3EB0313C8
:10110000121A02EB431202FB04405DF8044B7047D5
:101110000C000024014B1868704700BF0400002435
:10112000002B18BF002A53D070B588B014461D4656
:10113000284B1A68284B1B689A4247D0274B1B88BC
:10114000834243D9254A52888A423FD926189E4273
:1011500001D91B1A9CB26B18934201D9521A95B24D
:10116000221892B26B189BB2013B013A04AC039473
:1011700005AC029406AC019407AC00949BB292B209
:10118000FFF762FF059B079A9B1A144A966803FBB8
:101190000666049D069BED1A0135002414E00F4BF2
:1011A0009868069B2344C3EB0313079A02EB431290
:1011B00002FB00F3074A1068074A116832461944D7
:1011C00018440BF095FB0134AC42E8D308B070BD75
:1011D000704700BF04000024080000240C00002415
:1011E00010B504464FF41621FFF74CFF00222146AC
:1011F0000C4804F0DDF988B902210A4804F0B0F97E
:1012000002F024F90446084B5B6A13F0020F04D085
:1012100002F01CF9001B3228F5D910BD01F03BF893
:10122000EAE700BF9C0800240010005010B5054CF0
:101230002068FFF7D5FF044B1A6821681960226007
:1012400010BD00BF0400002408000024F8B5184BAE
:1012500047F201729A804FF420721A804FF4F072B4
:101260005A8001229A7102229A60124F4FF0404038
:101270003860114D114B2B60114B4FF6FF721A6005
:101280000026104B1E604FF41624224631460BF008
:10129000B2FA2246314628680BF0ADFA214638688A
:1012A000FFF7F0FE21462868FFF7ECFEF8BD00BF0F
:1012B0000C0000240800002404000024000020C0CA
:1012C00000000024840700240A4B987130B94FF4C1
:1012D000F0721A804FF420725A807047012800D0B3
:1012E0007047044B4FF420721A804FF4F0725A800A
:1012F000F6E700BF0C00002470B588B004AC03947E
:1013000005AC029406AC019407AC0094FFF79CFE78
:10131000079884B2059B9BB2E41AA4B204F2DF14CE
:10132000A4B2284B9A680699C1EB011300EB431352
:10133000254D2D6803FB0255049B059AFFF7DAFE45
:10134000064601462846FFF79DFE204AD2F8D830CF
:1013500043F40003C2F8D8301D4B1A6822F0010292
:101360001A603F229A604FF440321A6002225A6398
:101370001C64DD63049A0699521A01320599079894
:10138000091A013142EA01425A64BDF830209A63D9
:101390001A6842F001021A6000230D4A526812F0E6
:1013A000020F03D10133B3F5001FF6D3084A936847
:1013B00043F00203936031462846FFF77FFE08B0F2
:1013C00070BD00BF0C00002404000024004402583B
:1013D0000010005230B583B004460C4D002210219D
:1013E000284603F0BBFDADF806400A2301220DF1AB
:1013F0000601074807F0DEFA0446012210212846BC
:1014000003F0ACFD204603B030BD00BF000402581D
:10141000A809002430B583B004460D4D00221021E8
:10142000284603F09BFD44F48074ADF806400A237F
:1014300001220DF10601074807F0BCFA044601221B
:101440001021284603F08AFD204603B030BD00BFBE
:1014500000040258A809002438B5FD4D01224FF4BC
:101460008061284603F07AFDFA4C01228021204653
:1014700003F074FD1E2001F0EFFF00224FF48061A5
:10148000284603F06BFD00228021204603F066FD14
:10149000642001F0E1FF01224FF48061284603F04F
:1014A0005DFD01228021204603F058FD1E2001F041
:1014B000D3FF1120FFF78EFF642001F0CDFFFF2046
:1014C000FFF788FF7720FFF7A5FF0120FFF7A2FFB6
:1014D0000020FFF79FFF0020FFF79CFF1320FFF77E
:1014E00099FFEF20FFF776FF0820FFF793FFFF201B
:1014F000FFF770FF7720FFF78DFF0120FFF78AFFCE
:101500000020FFF787FF0020FFF784FF1020FFF780
:1015100081FFC020FFF75EFF4F20FFF77BFF002019
:10152000FFF778FFC120FFF755FF1020FFF772FF8C
:101530000C20FFF76FFFC220FFF74CFF0120FFF7E1
:1015400069FF1420FFF766FFCC20FFF743FF102050
:10155000FFF760FFB020FFF73DFF0A20FFF75AFFBB
:101560001820FFF757FF1E20FFF754FF1220FFF748
:1015700051FF1620FFF74EFF0C20FFF74BFF0E2008
:10158000FFF748FF0D20FFF745FF0C20FFF742FF54
:101590002920FFF73FFF0620FFF73CFF1420FFF74D
:1015A00039FF1320FFF736FF2920FFF733FF3320E1
:1015B000FFF730FF1C20FFF72DFFB120FFF70AFFD8
:1015C0000A20FFF727FF1920FFF724FF2120FFF74C
:1015D00021FF0A20FFF71EFF0C20FFF71BFF002052
:1015E000FFF718FF0C20FFF715FF0320FFF712FF8E
:1015F0000320FFF70FFF2320FFF70CFF0120FFF769
:1016000009FF0E20FFF706FF0C20FFF703FF27203E
:10161000FFF700FF2B20FFF7FDFE1C20FFF7FAFE6F
:10162000FF20FFF7D7FE7720FFF7F4FE0120FFF73A
:10163000F1FE0020FFF7EEFE0020FFF7EBFE112089
:10164000FFF7E8FEB020FFF7C5FE5D20FFF7E2FEE2
:10165000B120FFF7BFFE4F20FFF7DCFEB220FFF7FF
:10166000B9FE0020FFF7D6FEB320FFF7B3FE8020BF
:10167000FFF7D0FEB520FFF7ADFE0C20FFF7CAFE46
:10168000B720FFF7A7FE8520FFF7C4FEB820FFF7BD
:10169000A1FE2020FFF7BEFEC120FFF79BFE7820B1
:1016A000FFF7B8FEC220FFF795FE7820FFF7B2FEE5
:1016B000D020FFF78FFE8820FFF7ACFEE020FFF779
:1016C00089FE0020FFF7A6FE0020FFF7A3FE022000
:1016D000FFF7A0FEE120FFF77DFE0620FFF79AFE50
:1016E000A020FFF797FE0820FFF794FEA020FFF749
:1016F00091FE0520FFF78EFEA020FFF78BFE07204E
:10170000FFF788FEA020FFF785FE0020FFF782FE8E
:101710004420FFF77FFE4420FFF77CFEE220FFF726
:1017200059FE2020FFF776FE2020FFF773FE4420AD
:10173000FFF770FE4420FFF76DFE9620FFF76AFE6C
:10174000A020FFF767FE0020FFF764FE0020FFF7F0
:1017500061FE9620FFF75EFEA020FFF75BFE0020F3
:10176000FFF758FE0020FFF755FEE320FFF732FE9B
:101770000020FFF74FFE0020FFF74CFE2220FFF76E
:1017800049FE2220FFF746FEE420FFF723FE442017
:10179000FFF740FE4420FFF73DFEE520FFF71AFE6D
:1017A0000D20FFF737FE9120FFF734FE0A20FFF7E8
:1017B00031FEA020FFF72EFE0F20FFF72BFE932017
:1017C000FFF728FE0A20FFF725FEA020FFF722FEE4
:1017D0000920FFF71FFE8D20FFF71CFE0A20FFF7F0
:1017E00019FEA020FFF716FE0B20FFF713FE8F2037
:1017F000FFF710FE0A20FFF70DFEA020FFF70AFEFC
:10180000E620FFF7E7FD0020FFF704FE0020FFF7CA
:1018100001FE2220FFF7FEFD2220FFF7FBFDE7205F
:10182000FFF7D8FD4420FFF7F5FD4420FFF7F2FD58
:10183000E820FFF7CFFD0C20FFF7ECFD9020FFF72D
:10184000E9FD0A20FFF7E6FDA020FFF7E3FD03E036
:1018500000000258000402580E20FFF7DBFD922022
:10186000FFF7D8FD0A20FFF7D5FDA020FFF7D2FD36
:101870000820FFF7CFFD8C20FFF7CCFD0A20FFF7F3
:10188000C9FDA020FFF7C6FD0A20FFF7C3FD8E208B
:10189000FFF7C0FD0A20FFF7BDFDA020FFF7BAFD4E
:1018A000E920FFF797FD3620FFF7B4FD0020FFF792
:1018B000B1FDEB20FFF78EFD0020FFF7ABFD01200F
:1018C000FFF7A8FDE420FFF7A5FDE420FFF7A2FD48
:1018D0004420FFF79FFD8820FFF79CFD4020FFF785
:1018E00099FDED20FFF776FDFF20FFF793FD4520E2
:1018F000FFF790FD6720FFF78DFDFA20FFF78AFDC7
:101900000120FFF787FD2B20FFF784FDCF20FFF795
:1019100081FDFF20FFF77EFDFF20FFF77BFDFC2010
:10192000FFF778FDB220FFF775FD1020FFF772FD7D
:10193000AF20FFF76FFD7620FFF76CFD5420FFF717
:1019400069FDFF20FFF766FDEF20FFF743FD102044
:10195000FFF760FD0D20FFF75DFD0420FFF75AFD46
:101960000820FFF757FD3F20FFF754FD1F20FFF72A
:1019700051FD3A20FFF72EFD6620FFF74BFD1120A9
:10198000FFF728FD782001F067FD3620FFF722FDE4
:101990006820FFF73FFD3520FFF71CFD0020FFF713
:1019A00039FD2920FFF716FD38BD00BF08B5FFF748
:1019B00053FD08BD00B589B0002301930293039342
:1019C000049305930693079319481A4A02608360AB
:1019D000C3600422026103754375012282610377AB
:1019E00043628362C3620363436380F83830C26337
:1019F00002F09EFAB0B9104B019306230293002324
:101A0000039340F2FF7204920422059206938DF82C
:101A10001D300DEB0201064801F096FD28B909B012
:101A20005DF804FB00F037FCE5E700F034FCF6E776
:101A30008807002400600258000084CB10B5B2B0C3
:101A40000446C022002102A80AF0D5FE2268154BE8
:101A50009A4201D032B010BD4FF400220023CDE9EC
:101A60000223022304930C22059206930793089302
:101A7000C023099320230A9302A804F083FF68B9C6
:101A8000094BD3F8E02042F08072C3F8E020D3F88D
:101A9000E03003F080730193019BDBE700F0FBFB78
:101AA000EEE700BF006002580044025808B50F4836
:101AB0000F4B03600023436002228260C3604364D3
:101AC0008264C364036543658365C36502F03EFEBB
:101AD00028B90121054802F077FF18B908BD00F0C8
:101AE000DAFBF6E700F0D7FBF8E700BFEC070024CD
:101AF0000010005202680F4B9A4200D0704700B5A8
:101B000083B00D4BD3F8D42042F01002C3F8D42098
:101B1000D3F8D43003F010030193019B0022114647
:101B20005A2002F01FFD5A2002F040FD03B05DF87C
:101B300004FB00BF0010005200440258F0B5B9B0D9
:101B40000023339334933593369337933B4B1B6881
:101B50000BB139B0F0BD394B01221A60C02200210F
:101B600002A80AF048FE4FF080720023CDE902235C
:101B700002A804F007FF00285CD1314BD3F8D42031
:101B800042F48052C3F8D420D3F8D43003F4805305
:101B90000193019B4FF63F033393022434940026B4
:101BA000359636940C25379533A9264802F0F8FF70
:101BB00080233393349435963694379533A922484D
:101BC00002F0EEFF302333933494359636943795F4
:101BD00033A91E4802F0E4FF012333933494359671
:101BE000369437951A4F33A9384602F0D9FF48F298
:101BF000361333933494359603233693379533A9AC
:101C0000384602F0CDFF4FF6837333933494359604
:101C10003694379533A90F4802F0C2FF4CF2037394
:101C20003393349435963694379533A90A4802F0A5
:101C3000B7FF8EE700F02FFB9FE700BF540800249A
:101C400000440258001402580000025800080258CC
:101C50000018025800100258000C02582DE9F041FB
:101C600082B005460C464FF00008CDF804800126EE
:101C70000E6010274F608E60C1F80C804FF48052C8
:101C800006F016FC304601F0E7FB02232360676094
:101C9000A660C4F80C804FF480522146284606F016
:101CA00007FC0323236067600823A360C4F80C804B
:101CB0004FF480522146284606F0FAFB40F23123C9
:101CC0000193042323606760A660019BE3604FF4E7
:101CD00080522146284606F0EBFB40F2963128461A
:101CE00006F007FC02B0BDE8F081000000B589B045
:101CF00000230193029303930493059306930793A0
:101D000019481A4A02604360012282600822C260B8
:101D100010210161402141614FF4C0718161C361B3
:101D20004FF4006303624FF4805343624FF4005357
:101D300083620223019309210291062103910492F7
:101D400004220592069307930DEB020106F088FB2F
:101D500030B907490448FFF781FF09B05DF804FB7B
:101D600000F099FAF5E700BF5808002440410052FE
:101D70008C08002408B5FFF7E1FE08BDF0B58FB070
:101D8000002409940A940B940C940D945F4BD3F89F
:101D9000E02042F01002C3F8E020D3F8E02002F087
:101DA00010020192019AD3F8E02042F02002C3F819
:101DB000E020D3F8E02002F020020292029AD3F849
:101DC000E02042F08002C3F8E020D3F8E02002F0E7
:101DD00080020392039AD3F8E02042F00402C3F891
:101DE000E020D3F8E02002F004020492049AD3F831
:101DF000E02042F00102C3F8E020D3F8E02002F036
:101E000001020592059AD3F8E02042F00202C3F8DD
:101E1000E020D3F8E02002F002020692069AD3F8FE
:101E2000E02042F04002C3F8E020D3F8E02002F0C6
:101E300040020792079AD3F8E02042F00802C3F864
:101E4000E020D3F8E03003F008030893089B304EFD
:101E500022464FF4C061304603F080F82D4F2246F1
:101E60009021384603F07AF87C2309934FF48813C5
:101E70000A930B9409A9284802F092FE04230993BF
:101E80000A940B9409A9304602F08AFE4FF40063CD
:101E900009930A940B9409A9204802F081FE4FF49B
:101EA000C063099301250A950B940C9509A9304646
:101EB00002F076FE902309930A950B940C9509A9DC
:101EC000384602F06DFE22462146082002F04AFB09
:101ED000082002F06BFB22462146092002F042FB5B
:101EE000092002F063FB224621460A2002F03AFB59
:101EF0000A2002F05BFB22462146172002F032FB4B
:101F0000172002F053FB0FB0F0BD00BF0044025891
:101F1000000002580004025800100258000C025839
:101F200000B58FB03422002101A80AF064FC2848D3
:101F3000284B0360002343608360C3600361062273
:101F4000426182613F22C2612B22026240F21F2263
:101F5000426240F2AB22826240F22922C26240F227
:101F6000B722026380F8343080F8353080F836309C
:101F700003F0EAF828BB002201924FF4F0710291BD
:101F800003924FF42073049302200590FF200690E3
:101F900007924FF480600890052009904FF0404070
:101FA0000A900B910C938DF834208DF835208DF824
:101FB000362001A9064803F025FA28B90FB05DF8CC
:101FC00004FB00F068F9D6E700F065F9F6E700BF1A
:101FD0009C080024001000502DE9F04FBFB00446CB
:101FE000002139913A913B913C913D91C02208A842
:101FF0000AF001FC2268764B9A4202D03FB0BDE85D
:10200000F08F4FF000520023CDE9082301231293F3
:1020100006231393022314931593032316934FF46B
:10202000406317934FF40073189308A804F0AAFCB8
:10203000002840F0CA80674BD3F8E42042F0080241
:10204000C3F8E420D3F8E42002F008020192019AD8
:10205000D3F8E02042F02002C3F8E020D3F8E020DB
:1020600002F020020292029AD3F8E02042F0040229
:10207000C3F8E020D3F8E02002F004020392039AB0
:10208000D3F8E02042F00102C3F8E020D3F8E020CA
:1020900002F001020492049AD3F8E02042F0020216
:1020A000C3F8E020D3F8E02002F002020592059A7E
:1020B000D3F8E02042F04002C3F8E020D3F8E0205B
:1020C00002F040020692069AD3F8E02042F008029D
:1020D000C3F8E020D3F8E03003F008030793079B30
:1020E0004FF4806BCDF8E4B002253A9500243B9480
:1020F00003263C960E273D9739A9374802F050FD3C
:10210000C12339933A953B943C963D97DFF8D4A090
:1021100039A9504602F044FD782339933A953B940F
:102120003C963D9739A92D4802F03AFD39963A95EB
:102130003B943C964FF00909CDF8F490DFF8A88065
:1021400039A9404602F02CFD4FF4706339933A955B
:102150003B943C963D9739A9404602F021FD4FF44F
:102160000C6339933A953B943C963D9708F5A058FB
:1021700039A9404602F014FDCDF8E4B03A953B94FD
:102180003C953D9739A9504602F00AFD0823399342
:102190003A953B943C963D9739A9114802F000FDD1
:1021A0004FF4A05339933A953B943C96CDF8F49074
:1021B00039A9404602F0F4FC22462146582002F09C
:1021C000D1F9582002F0F2F918E700F064F832E78C
:1021D0000010005000440258001402580000025839
:1021E000000C0258000802580004025808B509F013
:1021F000A9FF08BDD9B108B503460846022B0CD08B
:10220000032B0FD100F0E0FB18B10948FFF7EEFFF8
:1022100008E00848FFF7EAFF04E091F8400000F00A
:102220003FFC00B108BD0348FFF7E0FFFAE7704745
:10223000181001082410010810B584B0002400947F
:1022400001940294039402F0D3F901238DF8003035
:102250008DF801404FF04042019218228DF808207D
:102260008DF809408DF80A4003228DF80B208DF877
:102270000C308DF80D308DF80E308DF80F4068461B
:1022800002F0D4F9042002F0C1F904B010BD08B581
:1022900009F00CFF08BD72B6FEE7000000B59DB066
:1022A0004C22002109A80AF0A6FA2022002101A848
:1022B0000AF0A1FA022003F0A7F900230093264BAD
:1022C0009A6942F440429A619B6903F44043009347
:1022D000224BDA6A42F00102DA62DB6A03F00103A0
:1022E0000093009B1C4B9B6913F4005FFAD0012301
:1022F00009934FF480330A93022312931393052218
:102300001492C022159216930F2217921893082345
:10231000199300231A931B9309A803F0ABF9B8B9DA
:102320003F23019303230293002303930823049381
:102330004023059306934FF480620792089304218B
:102340000DEB010003F0D0FE20B91DB05DF804FBD9
:10235000FFF7A1FFFFF79FFF004802580004005855
:1023600010B5FFF769FF474B5B6913F4003F13D1CA
:10237000BFF34F8FBFF36F8F424B0022C3F8502241
:10238000BFF34F8FBFF36F8F5A6942F400325A6127
:10239000BFF34F8FBFF36F8F3A4B5B6913F4803FEE
:1023A00027D1384B0022C3F88420BFF34F8FD3F8D6
:1023B0008040C4F34E3000E01846C4F3C90243F62F
:1023C000E07303EA401343EA82732E49C1F8603296
:1023D0001346013A002BF2D1431E0028ECD1BFF383
:1023E0004F8F4B6943F480334B61BFF34F8FBFF383
:1023F0006F8F00F0F1FFFFF751FFFFF7BFFCFFF712
:1024000055FBFFF773FCFFF78BFD00F063FB00F05B
:102410007DFD00F067FE00F031FE00F097FE00F059
:1024200011FDFFF7C7FA00F03FFDFEF70FFFFFF7C2
:10243000BDFA0120FEF748FF3C21134806F0D8FF03
:102440003C21124806F0D4FF114800F04DFA00215B
:10245000104809F071FE002009F05AFE09F090FDC5
:102460000D4809F0A9FE05E00B4809F071FE0120B6
:1024700000F0F2FF09F006FE074800F043FA0028DA
:10248000F2D1F4E700ED00E0CC0A0024800A002439
:10249000180B0024F521000844090024704700B5FA
:1024A00086464FF0000C4FF6FF7010E040080133F5
:1024B000DBB2072B07D810F0010FF7D04AF2010268
:1024C00082EA5000F3E70CF1010C1FFA8CFC8C45FA
:1024D00004D21EF80C3058400023EAE75DF804FBF4
:1024E0000170090A417070470170C1F307234370FE
:1024F000C1F307438370090EC170704703784078B9
:1025000043EA002070470378427843EA0223827846
:1025100043EA0243C07843EA006070472DE9F8437C
:102520000646884691460024E51CADB2454500F2BA
:10253000C680375D601C3044FFF7E0FF0346E21CB5
:10254000B018EC18A4B2444500F2B980042B11D0A5
:10255000012BE9D1143F042FE6D801A353F827F04B
:1025600093260008A126000829250008AF260008A8
:10257000B7260008FFF7C7FF0A3F1D2FD4D801A3D5
:1025800053F827F0FD250008032600080926000857
:102590000F26000815260008272600082925000810
:1025A000392600083F2600082925000829250008AB
:1025B000292500088126000829250008292500086A
:1025C00029250008292500082925000829250008B3
:1025D0004526000857260008692600086F260008CF
:1025E000752600087B2600082925000829250008F3
:1025F00029250008872600088D260008C9F8000054
:1026000092E7C9F804008FE7C9F808008CE7C9F819
:102610000C0089E7304B83FB0023C017C0EB63102D
:10262000C9F8100080E72C4B83FB0023C017C0EBD8
:102630006310C9F8140077E7C9F81C0074E7C9F8FB
:10264000200071E7244B83FB0023C017C0EB63100D
:10265000C9F8240068E7204B83FB0023C017C0EBB8
:102660006310C9F828005FE7C9F82C005CE7C9F8D7
:10267000300059E7C9F8340056E7C9F8380053E785
:10268000A9F83C0050E7A9F818004DE7A9F81A008E
:102690004AE7B35CB3FA83F35B0989F8413043E757
:1026A000B35C003B18BF012389F840303CE7B35CC2
:1026B00089F83E3038E7B35C89F83F3034E7074BA0
:1026C0001868C9F842009A889B79A9F8462089F8C9
:1026D0004830BDE8F88300BF1F85EB51301001087A
:1026E0002DE9F8431D4602F10806B6B2BDF82030C8
:1026F0009E4203D900263046BDE8F88381468846CD
:102700001446971CBFB2AA232B7055236B70394611
:10271000A81CFFF7E5FE85F804900D4A1378591CB4
:1027200011706B71002C18BFB8F1000F0AD1A11DF8
:1027300089B22846FFF7B3FE01460437E819FFF7D0
:10274000CFFED8E722464146A81D0AF0D1F8EEE7B1
:10275000A009002400B5C5B04FF48473009302AB08
:10276000FFF7BEFF0246094B186860B11AB9002096
:1027700045B05DF804FB142302A907F0B8FCB0FAD9
:1027800080F04009F4E70020F2E700BFA40900242C
:102790002DE9F04FC7B006460F4690461C4600F0A4
:1027A00055FE504B1B68002B00F093800546002F10
:1027B00018BF002E0CBF4FF001094FF0000900F0C8
:1027C0008B80B8F1000F35D188E0C0F34F000133A2
:1027D000DBB2072B08D810F0010FF6D0C0F34F0280
:1027E0004AF201005040F2E7013189B2514505D269
:1027F00003AB5B5C434098B2009BEAE7019B9842C5
:1028000013D19DF80C303370A8F800B0BBF1000F65
:1028100002D14FF0010961E05A460DF10E01384630
:102820000AF066F84FF0010958E000F00FFE401B77
:10283000A04253D201231A460DF21711294800680D
:1028400007F0BDFC0028F0D19DF81731AA2BECD180
:10285000022301220DF217112248006807F0AFFC95
:102860000028E2D19DF81731552BDED1AA238DF82F
:10287000103155238DF81131042302220DF5897191
:102880001848006807F09BFC0028CED10DF5897030
:10289000FFF734FE8246A0F1020B1FFA8BFBBBF55B
:1028A000807FC2D8821C234692B203A90D480068DB
:1028B00007F085FC00900028B7D103AB03EB0A00BA
:1028C000FFF71CFE0190042144A8FFF7E8FD00215A
:1028D0008CE74FF0000901E04FF00009484647B08F
:1028E000BDE8F08FA4090024034B18600023034ABD
:1028F0001370034A13607047A4090024A009002440
:102900009C09002430B5C3B0044600F09FFD002CA4
:102910004BD0284B1B68002B49D0274B1B68C31A90
:10292000B3F5967F03D20023184643B030BD224B47
:102930001860002211460320FFF70CFF0546C8B1BE
:1029400012230DF1020201A90DF20710FFF720FF7B
:102950000346D0B19DF80721002A18BF032A0CBFF7
:102960000125002519D0154A03CAC4F84200C4F84D
:102970004610D9E7124B03CBC4F84200C4F8461006
:102980001B7884F84A300123CEE70E4B03CBC4F802
:102990004200C4F846102B46C6E72246BDF8021096
:1029A00001A8FFF7BBFD2B46BEE70023BCE70023D1
:1029B000BAE700BFA40900249C0900244C100108B8
:1029C0003810010844100108002867D010B58CB0F9
:1029D000044611238DF8003004210DF10100FFF7AA
:1029E0007FFDE1690DF10300FFF77EFD12238DF8F5
:1029F0000730042102A8FFF773FD216A0DF10A00D8
:102A0000FFF772FD1E238DF80E3004210DF10F002B
:102A1000FFF766FDA36A642103FB01F10DF11100CC
:102A2000FFF762FD20238DF8153004210DF116000B
:102A3000FFF756FD216B06A8FFF756FD22238DF800
:102A40001C3004210DF11D00FFF74AFDA16B0DF1B3
:102A50001F00FFF749FD27238DF82330042109A823
:102A6000FFF73EFD618B0DF12600FFF73DFD1523BD
:102A70008DF82A3001210DF12B00FFF731FD94F87C
:102A800040304BB101238DF82D302E2269460220B3
:102A9000FFF760FE0CB010BD0023F4E70020704784
:102AA00010B582B0044615238DF8043001210DF1D4
:102AB0000500FFF715FD54B101238DF807300422FE
:102AC0000DEB02010220FFF745FE02B010BD00230E
:102AD000F3E7000008B51548154B03604FF4800379
:102AE00043604FF4003383600823C3600023036115
:102AF00043614FF0806282614FF00052C261036215
:102B000043628362C3624FF0804242638363C36364
:102B1000036443648364C36403654365836505F0AC
:102B200095FD00B908BDFFF7B6FBFBE7A809002437
:102B30000014005810B5B8B0044600213391349108
:102B4000359136913791C02202A809F054FE2268CF
:102B50001B4B9A4201D038B010BD4FF48042002385
:102B6000CDE9022302A803F00DFF30BB154BD3F8CB
:102B7000F42042F02002C3F8F420D3F8F42002F04D
:102B800020020092009AD3F8E02042F00202C3F83B
:102B9000E020D3F8E03003F002030193019B2823E7
:102BA00033930223349300233593369308233793CA
:102BB00033A9054801F0F4FFCDE7FFF76CFBD5E73B
:102BC00000140058004402580004025882B0074B19
:102BD000D3F8F42042F00202C3F8F420D3F8F43022
:102BE00003F002030193019B02B0704700440258B6
:102BF000FEE7FEE7FEE7FEE7FEE770477047704737
:102C000008B500F017FC08BD08B5042002F0C2F9B1
:102C100008BD08B5082002F0BDF908BD08B51020B0
:102C200002F0B8F908BD08B5202002F0B3F9402041
:102C300002F0B0F908BD000008B5024806F033F80C
:102C400008BD00BFCC0A002408B5024806F02BF8E6
:102C500008BD00BF340A002408B5024802F065FB35
:102C600008BD00BF9C08002408B5024801F00EFE14
:102C700008BD00BFEC0700240120704708B509F02B
:102C800009FE162303604FF0FF3008BD08B54FF072
:102C9000FF31FFF7F3FFFEE770B50C46164600253F
:102CA00006E0AFF30080214601F8010B01350C4628
:102CB000B542F6DB304670BD70B50C4616460025B1
:102CC00004E014F8010BAFF300800135B542F8DBE6
:102CD000304670BD4FF0FF3070474FF400534B60EB
:102CE00000207047012070470020704710B5034650
:102CF0000C4A0D490D48006840B10C480068034477
:102D0000521A934206D8094A136010BD0748084C6E
:102D10000460F2E709F0BEFD0C2303604FF0FF30C2
:102D2000F3E700BF0000082400040000300A00247C
:102D300000100024314AD2F8883043F47003C2F8FE
:102D400088302F4B1B6803F00F03062B06D82C4A44
:102D5000136823F00F0343F007031360294B1A682D
:102D600042F001021A6000221A611968264A0A40DC
:102D70001A60234B1B6813F0080F06D0204A136813
:102D800023F00F0343F0070313601E4B00229A61E8
:102D9000DA611A621D4999621D49D9621D49196398
:102DA0005A639963DA6319645A64196821F48021BB
:102DB00019601A66184B1A68184B1340B3F1005F7C
:102DC00003D2174B0122C3F808210E4BD3F8D4309D
:102DD00013F4805F10D10B4BD3F8D42042F480520F
:102DE000C3F8D4200F4A43F2D2011160D3F8D420A3
:102DF00022F48052C3F8D420704700BF00ED00E0F9
:102E000000200052004402587FEDF6EA0002020260
:102E10000000FF01800201010010005C0000FFFFC4
:102E20000080005100400052054AD36843F002037D
:102E3000D360034B5B6813F4005FFAD0704700BFA8
:102E40000048025800B58DB02422002103A809F0E3
:102E5000D2FC002300930193029312484FF080426A
:102E60000260436083604FF0FF32C26003618361A0
:102E7000012303930593099303A906F011F950B9AF
:102E80000023009302936946064806F03BFB28B9ED
:102E90000DB05DF804FBFFF7FEF9F1E7FFF7FBF972
:102EA000F6E700BFCC0A002400B58DB02422002133
:102EB00003A809F0A0FC002300930193029311489A
:102EC000114A0260436083604FF6FF72C260036183
:102ED0008361012303930593099303A906F0E0F8A6
:102EE00050B90023009302936946064806F00AFB96
:102EF00028B90DB05DF804FBFFF7CDF9F1E7FFF756
:102F0000CAF9F6E7800A00240008004000B585B041
:102F100000230193029303930F48104A026040F28A
:102F2000DF124260836040F2E733C3608023836135
:102F300005F0F8FF50B900230193039301A9064857
:102F400006F0E0FA28B905B05DF804FBFFF7A3F935
:102F5000F1E7FFF7A0F9F6E7340A0024001000407B
:102F600000B58BB00023059306930793089309934C
:102F70000368B3F1804F05D02A4A93422ED00BB09C
:102F80005DF804FB284BD3F8E82042F00102C3F8B7
:102F9000E820D3F8E82002F001020192019AD3F868
:102FA000E02042F00102C3F8E020D3F8E03003F063
:102FB00001030293029B032305930223069301233B
:102FC000099305A9194801F0EBFD002211461C20C8
:102FD00001F0C8FA1C2001F0E9FAD0E7124BD3F84F
:102FE000E82042F00402C3F8E820D3F8E82002F019
:102FF00004020392039AD3F8E02042F00802C3F8D7
:10300000E020D3F8E03003F008030493049B4FF46E
:103010004053059302230693099305A9044801F040
:10302000BFFDACE700080040004402580000025811
:10303000000C025802680F4B9A4200D0704700B54E
:1030400083B00D4BD3F8E82042F01002C3F8E8201B
:10305000D3F8E83003F010030193019B00221146DE
:10306000362001F07FFA362001F0A0FA03B05DF8B7
:1030700004FB00BF001000400044025808B5174888
:10308000174B03604FF4E133436000238360C36058
:1030900003610C2242618361C36103624362836204
:1030A00007F07EF970B900210C4807F07BFA60B98F
:1030B00000210A4807F0E2FA50B9084807F028FA58
:1030C00048B908BDFFF7E7F8EDE7FFF7E4F8EFE7E9
:1030D000FFF7E1F8F1E7FFF7DEF8F2E7400C002434
:1030E000004C004008B51748174B03604FF4E1331C
:1030F000436000238360C36003610C2242618361EB
:10310000C36103624362836207F04AF970B9002128
:103110000C4807F047FA60B900210A4807F0AEFAF8
:1031200050B9084807F0F4F948B908BDFFF7B3F8FB
:10313000EDE7FFF7B0F8EFE7FFF7ADF8F1E7FFF7DE
:10314000AAF8F2E7AC0B00240050004008B517487D
:10315000174B03604FF4E133436000238360C36087
:1031600003610C2242618361C36103624362836233
:1031700007F016F970B900210C4807F013FA60B98E
:1031800000210A4807F07AFA50B9084807F0C0F958
:1031900048B908BDFFF77FF8EDE7FFF77CF8EFE7E8
:1031A000FFF779F8F1E7FFF776F8F2E7180B00245C
:1031B0000010014010B5BCB0044600213791389191
:1031C00039913A913B91C02206A809F014FB23687B
:1031D000514A934207D0514A934237D0504A9342C2
:1031E00067D03CB010BD02220023CDE9062306A81B
:1031F00003F0C8FB38BB4B4BD3F8E82042F4002265
:10320000C3F8E820D3F8E82002F400220092009AE4
:10321000D3F8E02042F00102C3F8E020D3F8E03018
:1032200003F001030193019B4FF4C0533793022332
:103230003893002339933A9306233B9337A93A48AE
:1032400001F0AEFCCDE7FFF726F8D4E70222002319
:10325000CDE9062306A803F095FB38BB314BD3F824
:10326000E82042F48012C3F8E820D3F8E82002F402
:1032700080120292029AD3F8E02042F00202C3F8D0
:10328000E020D3F8E03003F002030393039B4FF4F4
:103290004053379302233893002339933A930E23F4
:1032A0003B9337A9214801F07BFC9AE7FEF7F3FF37
:1032B000D4E701220023CDE9062306A803F062FB30
:1032C00038BB184BD3F8F02042F01002C3F8F020BE
:1032D000D3F8F02002F010020492049AD3F8E02010
:1032E00042F00202C3F8E020D3F8E03003F002031A
:1032F0000593059B4FF440433793022338930023F3
:1033000039933A9304233B9337A9084801F048FCCA
:1033100067E7FEF7C0FFD4E7004C004000500040D4
:1033200000100140004402580000025800040258F6
:10333000DFF838D0FFF778FDFFF7FCFC0C480D49AB
:103340000D4A002302E0D458C4500433C4188C4200
:10335000F9D30A4A0A4C002301E013600432A24266
:10336000FBD309F09DFAFEF7FBFF7047000008242D
:1033700000000024680700240C6601086807002488
:10338000FC0F0024FEE70000104B1B780BB9012056
:10339000704710B504464FF47A70B0FBF3F30C4A53
:1033A0001068B0FBF3F001F00FF968B90F2C01D9E8
:1033B00001200AE0002221464FF0FF3001F0D2F850
:1033C000044B1C60002000E0012010BD2000002400
:1033D0001C0000242400002410B5032001F0A4F8F0
:1033E00002F088FD0F498B69C3F303230E4AD35CB7
:1033F00003F01F03D8408B6903F00F03D35C03F085
:103400001F0320FA03F3094A1360094B18600F20C9
:10341000FFF7BAFF10B10124204610BD0446FFF7A4
:10342000D5FBF9E7004402585410010818000024A5
:103430001C000024034B1B78034A11680B441360E3
:10344000704700BF20000024D40C0024014B1868F2
:10345000704700BFD40C002438B50446FFF7F6FFD0
:103460000546B4F1FF3F02D0044B1B781C44FFF724
:10347000EDFF401BA042FAD338BD00BF200000245E
:10348000014B1868000C70470010005C0A4B1B6869
:1034900003F04053B3F1805F08D0C36803F01C030E
:1034A0001C2B07D0C06800F01C007047C06800F0FB
:1034B0001C007047102070470010005C10B43030C2
:1034C0000B0A9B0003F00C03C45801F01F014FF0DE
:1034D0001F0C0CFA01FC24EA0C0CC2F384628A4033
:1034E0004CEA0202C2505DF8044B704710B414302D
:1034F0004B0E9B0003F00403C458C1F304514FF07A
:10350000070C0CFA01FC24EA0C0C8A404CEA02027B
:10351000C2505DF8044B7047C1F313033BB9C1F3CC
:10352000846101228A40C3691343C361704791FAE1
:10353000A1F131B1B1FA81F101F01F0101228A40FC
:10354000F1E72021F8E7000070B582B004460D468F
:103550000023019303689D499D4A8B4218BF934203
:1035600007D09C4A934204D040F60D319A48FEF7AA
:1035700095FF6B68062B18BF0C2B1DD0B3F5067F8B
:1035800000F2C280B3F5007F80F0AF80B3F58C7F8E
:1035900000F2B480B3F5807F09D3A3F580738F4A1E
:1035A00022FA03F313F0010F00F0A88004E0122BBD
:1035B00002D0182B40F0A280AB68072B00F2AD8040
:1035C000EB6840F2FF71864A8B4218BF934240F08D
:1035D000AA802B69042B18BF002B03D0013B022BC0
:1035E00000F2A78094F83830012B00F0A8806E69B3
:1035F0002068FFF74BFF40084FF6FF73C3409E4221
:1036000000F2B2802B69042B04D094F83830012BDF
:1036100000F0B080EA68724B9A4200F0B1802B68EB
:10362000704A012B18BF934200F0B7806E4A934254
:1036300000F0B3806D4A934200F0AF806C4A934231
:1036400000F0AB8002F186621032934200F0A58058
:10365000684A934200F0A18002F1866240329342B0
:1036600000F09B80644A934200F0978002F18662EA
:1036700002F58072934200F09080604A934200F01D
:103680008C8002F1042202F54012934200F0858002
:1036900002F1866202F5006293427ED0584A93425C
:1036A0007BD0584A934278D0574A934275D0574AB4
:1036B000934272D0564A93426FD0564A93426CD08E
:1036C000554A934269D0554A934266D0544A934230
:1036D00063D0544A934260D0534A93425DD040F63F
:1036E0002C313D48FEF7DAFE57E0A3F500733B4A64
:1036F00022FA03F313F0010F7FF45EAF40F60E31B0
:103700003548FEF7CBFE57E7B3F5407F3FF454AFA3
:1037100040F206329342F1D14EE740F60F312E4887
:10372000FEF7BCFE4CE74FF431612B48FEF7B6FEC6
:103730004FE740F611312848FEF7B0FE52E76E69B8
:10374000E36B0133B6FBF3F62068FFF79FFE4008FA
:103750004FF6FF73C3409E427FF654AF40F61531DB
:103760001D48FEF79BFE4DE740F621311A48FEF753
:1037700095FE47E740F627311748FEF78FFE49E7E9
:103780002268124B9A4251D02268114B9A427AD049
:103790002268104B9A4200F0A88094F85030012B18
:1037A00000F0DD82012384F850302268936813F022
:1037B000040F00F0CD80636D43F0200363650120AA
:1037C000002384F8503002B070BD00BF00200240DA
:1037D00000210240006002586410010841100401F9
:1037E0000000FF4702003004040060080800900C4D
:1037F0001000C01040002019000180210004002AA0
:10380000002090360040C03A0080F03E0000214386
:10381000000052470000844B0000B84F000084CBEA
:10382000000052C7000021C30000B8CF2B68A74991
:10383000A74A8B4218BF9342A6D0A64A9342A3D070
:10384000A54A9342A0D002F18662103293429BD0E7
:10385000A24A934298D002F1042202F54012934208
:1038600092D002F1866202F5006293428CD09C4AAB
:10387000934289D09B4A934286D040F632319A488F
:10388000FEF70CFE80E72B689049914A8B4218BFE7
:1038900093423FF47DAF8F4A93423FF479AF8E4A13
:1038A00093423FF475AF02F18662103293423FF4C7
:1038B0006FAF8A4A93423FF46BAF02F1042202F5E4
:1038C000401293423FF464AF02F1866202F5006257
:1038D00093423FF45DAF834A93423FF459AF40F6C1
:1038E00036318148FEF7DAFD52E72B687749784A8E
:1038F0008B4218BF93423FF450AF764A93423FF455
:103900004CAF754A93423FF448AF02F186621032E1
:1039100093423FF442AF714A93423FF43EAF02F10B
:10392000042202F5401293423FF437AF6F4A9342AC
:103930003FF433AF6E4A93423FF42FAF6D4A934248
:103940003FF42BAF40F63C316748FEF7A7FD24E774
:103950002B68002B0ADBC3F3130100293DD1C3F30D
:10396000846301219940D3690B43D3612A68696854
:103970002068FFF7A3FD2068836813F0040300D0DC
:103980000123826812F0080200D0012252EA0306E5
:103990002FD02268916811F0010140F0DC812B6882
:1039A000EE68D2F8C000C3F3130C20EA0C0006F056
:1039B000180C514E26FA0CF63340C3F3130303439D
:1039C000C2F8C030EA684D4B9A4200F0D0802B68B4
:1039D000002BC0F247810020F2E693FAA3F333B143
:1039E000B3FA83F303F01F0301219940BBE72023BF
:1039F000F8E7AA682968FFF779FD414B1B6803F0D7
:103A00007043B3F1805F0BD02268D36813F0100FBE
:103A100041D16B69D268C2F382025200934006E042
:103A20006B692268D268C2F382025200934029690E
:103A3000042967D02268286802F1600C5CF8212014
:103A400002F0004200F0F840034313434CF82130E9
:103A50006B7E012B27D8236828696A7E012A28D02B
:103A60003146603353F8202022F000420A4343F8E5
:103A700020202B7E012B1FD821682A692B7E012B49
:103A800020D00B6923F4F04302F01F0206FA02F281
:103A900013430B617DE76B69D268920802F0040260
:103AA00052009340C3E740F68A310F48FEF7F6FC18
:103AB000D1E74FF00041D4E740F68E310A48FEF7D7
:103AC000EDFCD9E74FF40066DBE700BF02003004ED
:103AD000040060080800900C1000C0100004002AC8
:103AE000000021430000844B641001080020903640
:103AF0000040C03A0080F03EFFFF0F000000FF478B
:103B00000010005C2268136E03F0F8432968B3EBE1
:103B1000816F1DD02268536E03F0F8432968B3EB20
:103B2000816F1AD02268936E03F0F8432968B3EBD3
:103B3000816F17D02268D36E03F0F8432968B3EB86
:103B4000816F7FF426AFD36E23F00043D36620E766
:103B5000136E23F000431366DCE7536E23F000433B
:103B60005366DFE7936E23F000439366E2E7206835
:103B70007C4B984205D07C4B98422BD0FFF7CCFC75
:103B800025E72B68794A93424AD0794A934249D033
:103B9000784A934248D0784A934247D002F18662ED
:103BA0001032934244D0754A934243D002F104222A
:103BB00002F5401293423FD002F1866202F50062A4
:103BC00093423BD06E4A93423AD06E4A9342D5D14B
:103BD0006D49D3E72B68654A934233D0644A9342D8
:103BE00032D0644A934231D0634A934230D002F1DA
:103BF0008662103293422DD0604A93422CD002F15B
:103C0000042202F54012934228D002F1866202F5A6
:103C10000062934224D05B4A9342AFD15A49ADE748
:103C20000121ABE75949A9E75949A7E75949A5E750
:103C30005949A3E75949A1E759499FE759499DE7E0
:103C400059499BE7012199E7504997E7504995E782
:103C5000504993E7504991E750498FE750498DE724
:103C600050498BE722683F493F48824218BF8A4249
:103C70000CBF0121002118D14C4EB56805F0E07C45
:103C8000A9B13849886810F0010000D001203649F8
:103C9000896811F0010100D0012101430CD0636D4E
:103CA00043F02003636501208AE5414EE5E7414981
:103CB000896811F0010FF2D13F498B4207D03F498B
:103CC0008B4226D03E498B4234D0002078E515F453
:103CD000000FF4D1374B9A4201D0002070E54CF42C
:103CE0000003B26822F0E0721343B360354B1B68E7
:103CF0009B09354AA2FB03239B0901335B00019317
:103D000002E0019B013B0193019B002BF9D10020B4
:103D100056E515F0807FD5D1264B9A4201D0002080
:103D20004EE54CF08073B26822F0E0721343B3604A
:103D3000002045E515F4800F0FD11E4B9A4201D0AB
:103D400000203DE54CF48003B26822F0E07213439A
:103D5000B360002034E5002032E5002030E5022089
:103D600031E500BF00200240002102400200300483
:103D7000040060080800900C1000C0100004002A25
:103D8000000021430000844B0000B84F4000201980
:103D90008000501D000180210002B0250008302E57
:103DA000001060320020903600005247002302408D
:103DB0000063025800600258000084CB000052C724
:103DC0000000B8CF1C000024632D3E0538B5044622
:103DD00003684F494F4A934218BF8B4223D14E4B41
:103DE0009B6813F4403F14BF012300234BB302F040
:103DF000BFFB05466368B3F5003F1CD0B3F5403FF9
:103E00001DD0B3F5803F16D0FFF73AFB41F2030314
:103E1000984258D8414B9D424FD92268936843F449
:103E20008073936038BD3E4B9B6813F4403F14BFD2
:103E300001230023DAE71B0CB5FBF3F5E4E7850863
:103E4000E2E74FF40020002103F0A2FF054663687B
:103E5000B3F5101F2DD022D8B3F5E01F27D004D919
:103E6000B3F5001FD0D14509CEE7B3F5801F0DD0C3
:103E700006D9B3F5A01F09D0B3F5C01F06D0C3E71C
:103E8000B3F5002F02D0B3F5402F04D19B0C5B009B
:103E9000B5FBF3F5B8E7B3F5802FF7D0B4E7B3F58A
:103EA000201F08D0B3F5301FAED1050AACE70509D5
:103EB000AAE78509A8E7C509A6E72268936823F45D
:103EC00080739360AEE7174B9D4205D822689368D4
:103ED00023F440739360A5E7134B9D4207D82268F3
:103EE000936823F4407343F4807393609AE70F4B15
:103EF0009D4207D82268936823F4407343F400730B
:103F000093608FE72268936843F44073936089E776
:103F1000002002400021024000230240002D310118
:103F20000063025821BCBE0041787D0181F0FA0295
:103F300030B583B000230193002800F0B38204461B
:103F40000368A249A24A8B4218BF934207D0A14AF4
:103F5000934204D040F2A7119F48FEF79FFA63688E
:103F6000B3F5803F18BFB3F5003F25D0B3F5403F10
:103F700022D00BB3B3F5802F1ED0B3F5002F1BD08A
:103F8000B3F5402F18D0B3F5801F15D0B3F5A01F9F
:103F900012D0B3F5C01F0FD0B3F5E01F0CD0B3F5AE
:103FA000001F09D0B3F5101F06D0B3F5201F03D0B2
:103FB000B3F5301F40F0B780A368002B18BF042B67
:103FC0000CD0182B05D8854A22FA03F313F0010F01
:103FD00004D140F2A9118048FEF760FAE368012B92
:103FE00000F2A780637D012B00F2A980A36A002B59
:103FF00018BFB3F5806F06D0B3F5006F03D0B3F5EB
:10400000406F40F0A280636AB3F5806F18BFB3F5CC
:10401000846F3AD0B3F5886F37D0B3F58C6F34D056
:10402000B3F5906F31D0B3F5946F2ED0B3F5986F90
:104030002BD0B3F59C6F28D0B3F5A06F25D0B3F586
:10404000A46F22D0B3F5A86F1FD0B3F5AC6F1CD00E
:10405000B3F5B06F19D0B3F5B46F16D0B3F5B86F30
:1040600013D0B3F5BC6F10D0B3F5C06F0DD0B3F55E
:10407000C46F0AD0B3F5C86F07D0B3F5CC6F04D0C6
:10408000B3F5D06F01D0002B65D1E36A002B18BFC8
:10409000022B03D0012B01D0032B62D12369042B07
:1040A00018BF082B63D1236B002B18BFB3F5805FBB
:1040B00063D1237D012B66D894F83830012B68D862
:1040C000E3684BB1A369013B0F2B68D8237F012B19
:1040D0006BD8237F012B6ED0237F012B00F08880CB
:1040E000636D002B00F08E8023689A6812F0005FE9
:1040F00003D099683A4A0A409A6023689A6812F095
:10410000805F40F08D809968364A0A4042F08052C4
:104110009A60354B1B689B09344AA2FB03239B0919
:104120000133019379E04FF4D4712B48FEF7B6F9CF
:1041300042E74FF4D5712848FEF7B0F952E740F254
:10414000AB112548FEF7AAF950E74FF4D671224883
:10415000FEF7A4F957E740F2AD111F48FEF79EF9AC
:1041600093E74FF4D7711C48FEF798F996E740F2B1
:10417000AF111948FEF792F995E74FF4D871164838
:10418000FEF78CF995E740F2B1111348FEF786F976
:1041900092E74FF4D9711048FEF780F990E74FF499
:1041A000DB710D48FEF77AF990E740F2B7110A4843
:1041B000FEF774F98DE7236A013B072B8CD940F297
:1041C000BB110548FEF76AF986E700BF00200240F0
:1041D0000021024000600258641001080011110122
:1041E000C0FFFF5FC0FFFF6F1C000024632D3E0572
:1041F000637D012B7FF474AF4FF4E071A048FEF7AC
:104200004DF96DE72046FDF719FC0023A36584F8FE
:10421000503069E7019B013B0193019B002BF9D1D1
:104220002268936813F0805F40F09A80636D43F0DA
:1042300010036365A36D43F00103A3650125936833
:1042400013F0040300D00123616D11F0100F40F052
:104250000F81002B40F00C81636D23F4817343F0D8
:1042600002036365936813F0010F1ED18549864BE5
:104270009A4218BF8A420CBF0122002272D189687B
:1042800011F0010100D001217F4B9B6813F0010365
:1042900000D001230B4308D1002A69D07B49636811
:1042A0008A6822F47C1213438B60FFF7E9F841F22D
:1042B0000303984202D9A368102B5BD0627D236B65
:1042C00043EA4233A2681343227F43EA0243227F38
:1042D000012A5AD0626A22B102F47872A16A0A43B2
:1042E00013432168C8686A4A02401A43CA602168B9
:1042F0008A6812F0040200D001228B6813F00803D0
:1043000000D0012313431BD1227DE36A43EA8232AA
:10431000C868604B03401343CB6094F83830012BDE
:1043200038D02268136923F00103136122681369EE
:1043300023F07043616B0B4313612046FFF746FD8A
:10434000E368012B00F08B802268136B23F00F03CE
:104350001363636D23F0030343F0010363658CE093
:1043600000256CE74C4B9B6813F0010F9DD193E740
:104370004A4994E7617D226B42EA41321343227F2E
:1043800043EA024343F00C03A1E7226A013A43EAFD
:1043900042439FE7E36B013BB3F5806F41D2236C4F
:1043A000002B18BF202B17D0402B15D0602B13D01B
:1043B000802B11D0A02B0FD0C02B0DD0E02B0BD019
:1043C000B3F5807F08D0B3F5907F05D0B3F5A07F1B
:1043D00002D0B3F5B07F2AD1636C002B18BFB3F5C0
:1043E000007F2AD1A36C40F20142012B18BF9342F7
:1043F00029D1636A0BB1A36A0BB9636C4BBB20680C
:104400000269274B1340E26B511E226C42EA0142C3
:10441000616C0A43A16C0A43134343F00103036137
:1044200084E74FF430711648FEF738F8B7E740F2EA
:10443000C2211348FEF732F8CEE740F2C3211048FC
:10444000FEF72CF8CEE74FF431710D48FEF726F851
:10445000CFE740F2CA210A48FEF720F8CFE72168EB
:104460000B6B23F00F03A269013A13430B6370E750
:10447000636D43F0100363650125284603B030BD2A
:104480006410010800200240002102400023024085
:1044900003C0F0FFFCBFFFFF00600258006302583A
:1044A0001EF800FC0125E8E7002807DB00F01F02EA
:1044B000400901239340024A42F82030704700BF70
:1044C00000E100E0002804DB0901C9B2044B1954E3
:1044D000704700F00F000901C9B2024B1954704730
:1044E00000E400E014ED00E000B500F00700C0F1CA
:1044F000070CBCF1040F28BF4FF0040C031D062B62
:104500000FD9C31E4FF0FF3E0EFA0CF021EA000156
:1045100099400EFA03FE22EA0E0241EA02005DF81B
:1045200004FB0023EEE7000010B50446C31E042B75
:104530000DD80949CB6823F4E0631B041B0C24024B
:1045400004F4E0642343054A1A43CA6010BD912174
:104550000348FDF7A3FFECE700ED00E00000FA05DB
:10456000B010010870B506460C4615460F2A0ED845
:104570000F2C11D80B4BD8682A462146C0F30220D5
:10458000FFF7B2FF01463046FFF79CFF70BDA9213F
:104590000548FDF783FFEBE7AA210348FDF77EFFFF
:1045A000E8E700BF00ED00E0B010010810B5041E00
:1045B00003DB2046FFF778FF10BDBD210148FDF762
:1045C0006DFFF6E7B01001080138B0F1807F0BD223
:1045D0004FF0E0235861054AF02182F823100020B3
:1045E000986107221A6170470120704700ED00E0D2
:1045F000BFF35F8F044B5A6A22F480325A62002262
:10460000C3F89420704700BF00ED00E040F00100C7
:10461000054BC3F894005A6A42F480325A62BFF3E1
:104620004F8FBFF36F8F704700ED00E010B5044669
:1046300043780F2B49D82378012B4CD8237B012BAF
:104640004FD8E37A052B18BF032B01D9062B4ED187
:10465000A37A022B51D8637B012B54D8A37B012B67
:1046600057D8E37B012B5AD8637AFF2B5DD0237A8E
:10467000043BDBB21B2B5ED86378324AC2F8983019
:10468000D2F8A03023F00103C2F8A0306368C2F86A
:104690009C30217BE37A1B0643EA0173A17A43EA4B
:1046A000C143617B43EA8143A17B43EA4143E17B10
:1046B00043EA0143617A43EA0123217A43EA410351
:1046C00021780B43C2F8A03010BD40F24D111E48B6
:1046D000FDF7E4FEAFE74FF4A7711B48FDF7DEFEE0
:1046E000ACE740F24F111848FDF7D8FEA9E74FF4A8
:1046F000A8711548FDF7D2FEAAE740F25111124801
:10470000FDF7CCFEA7E74FF4A9710F48FDF7C6FEF1
:10471000A4E740F253110C48FDF7C0FEA1E74FF4A7
:10472000AA710948FDF7BAFE9EE740F25511064806
:10473000FDF7B4FE9BE74FF4AB710348FDF7AEFE07
:104740009AE700BF00ED00E0B0100108002800F07B
:104750008E8010B504460268464B9A4203D0F7217A
:104760004548FDF79BFE6368002B18BFB3F5803FFB
:104770000BD0B3F5003F08D0B3F5403F05D0B3F5FB
:10478000802F02D0B3F5A02F48D1A368042B4AD8BC
:10479000E368B3F5803F4BD22369012B4DD86369A1
:1047A000012B4FD8E369002B18BF402B4FD1A369D1
:1047B000002B18BFB3F5807F4ED194F86130002BE9
:1047C0004FD0022384F8613021680A682B4B1340D4
:1047D0006268E069024313430B6021684A6B284B0F
:1047E0001340A268A069024313434B632268116C13
:1047F000244B0B40E1680B43136421684B6B23F49B
:10480000401320696269520542EA005213434B6328
:1048100000206066012384F8613010BDF82116483D
:10482000FDF73CFEB1E7F9211348FDF737FEAFE78E
:10483000FA211148FDF732FEAEE7FB210E48FDF7E5
:104840002DFEACE7FC210C48FDF728FEAAE7FD2170
:104850000948FDF723FEAAE7FE210748FDF71EFEE3
:10486000ABE784F860302046FDF744F9A9E7012062
:10487000704700BF0010005200110108BFFFF8FF91
:10488000F8FEFFFF0000FFFF7047704770B5044659
:1048900003685D681E6815F0010F16D016F4807F5E
:1048A00013D01A6822F480721A60436E43F0010339
:1048B0004366036801229A60042380F86130002374
:1048C00080F86030436A03B1984715F0200F18D084
:1048D00016F4005F15D02268136823F400531360A8
:1048E000236820229A60636E43F002036366042308
:1048F00084F86130002384F86030636A0BB120468D
:10490000984715F0080F18D016F4006F15D02268DC
:10491000136823F400631360236808229A60636EAF
:1049200043F004036366042384F86130002384F8B1
:104930006030636A0BB12046984715F0040F02D02F
:1049400016F4806F20D115F0020F16D016F4007FF8
:1049500013D02268136823F40073136023680222C3
:104960009A60636E6366012384F86130002384F8E3
:104970006030236A0BB12046984715F0100F02D023
:1049800016F4805F0CD170BD2268136823F4806335
:104990001360236804229A602046FFF775FFD2E770
:1049A0002268136823F480531360236810229A60EE
:1049B000636E6366012384F86130002384F86030FD
:1049C0002046FFF762FFDEE738B505460C460129B1
:1049D00069D8C4EBC40305EB83039B6AB3F5803F3E
:1049E00067D26B68B3F5403F0FD0C4EBC40305EB4F
:1049F0008303DB6A0B2B62D86B6833B1C4EBC4034F
:104A000005EB83031B6B022B5FD8C4EBC40305EBE0
:104A100083039B6B012B5ED8C4EBC40305EB8303BC
:104A2000DB6B012B5DD8012C61D095F86030012B38
:104A300000F0AB80012385F86030022385F86130F7
:104A4000C4EBC40205EB8202D16A136B41EA034353
:104A5000906B43EA0053D26B43EA4253A1F109023F
:104A6000012A58D9C4EBC40205EB8202526B43EA17
:104A70000263002C62D12968486A454A02401A4301
:104A80004A622A68C4EBC40305EB8303996A916107
:104A9000DB6A093B012B47D9012385F861300020EF
:104AA00085F8600038BD40F2F3613A48FDF7F6FC46
:104AB0008FE740F2F4613748FDF7F0FC91E740F2F0
:104AC000F7613448FDF7EAFC96E740F2FA613148B5
:104AD000FDF7E4FC99E740F2FD612E48FDF7DEFCAE
:104AE0009AE740F2FE612B48FDF7D8FC9BE7C4EB48
:104AF000C40305EB8303DB6A0B2B96D1C4EBC40321
:104B000005EB83031B6C022B8FD940F20271214805
:104B1000FDF7C4FC89E7C4EBC40205EB8202526BCB
:104B200002F07F421343A4E7C4EBC40405EB840402
:104B3000636B2A6823F07F439362ADE70B291BD098
:104B400015482968CA6922EA00021343CB612A6822
:104B5000C4EBC40305EB8303996A1161DB6A093B6B
:104B6000012B99D8C4EBC40405EB8404636B2A6859
:104B700023F07F4313628FE7C4EBC40205EB82028C
:104B8000126C43EA82430548DBE702208AE700BF54
:104B9000F0FFCC00001101080F0033FF0F003FFFB2
:104BA0002DE9F04383B080460C466D4A6D4B904230
:104BB00018BF984214BF4FF001094FF000092BD0E5
:104BC00003F50063C31A18BF012302F50062904287
:104BD00022D00BB3644BC31A18BF012302F5006245
:104BE000904219D0C3B1614BC31A18BF012302F51B
:104BF0000062904210D07BB15D4BC31A18BF0123F5
:104C000002F50062904207D033B15A4B984203D06C
:104C1000B3215948FDF742FC23689AB212B1B3F5AB
:104C2000803F03D3B4215448FDF738FC6368112B4F
:104C300018BF012B0FD9B3F5041F0CD010D8B3F552
:104C4000881F08D003D9B3F5901F04D011E0032BBF
:104C500003D9122B0DD10025D2E0022B09D3FAE79C
:104C6000B3F5441FF7D0B3F5481FF4D0B3F5081FD0
:104C7000F1D0B5214048FDF711FCECE7E368032BC8
:104C800017D8D8F80820690003238B4022EA0302D2
:104C9000E3688B401343C8F80830D8F8042022EAB0
:104CA00007026368C3F30013AB401343C8F8043032
:104CB000B6E0C4213048FDF7F1FBE2E7D6212E48EB
:104CC000FDF7ECFBB5E0B9F1000F2DD02B4BB8EBA5
:104CD000030318BF01232A4A904525D023B3224B52
:104CE000B8EB030318BF012302F5006290451BD007
:104CF000D3B11E4BB8EB030318BF012302F50062CA
:104D0000904511D083B11A4BB8EB030318BF0123B0
:104D100002F50062904507D033B1164B984503D099
:104D2000E3211548FDF7BAFB23690F2B10D8EA08D9
:104D3000083258F8220005F0070189000F238B4044
:104D400020EA030023698B40034348F8223082E0C5
:104D5000E4210948FDF7A2FBE9E7092313E000BFBE
:104D6000000002580004025800140258001C0258A7
:104D7000002402580028025850110108000C025863
:104D80000008025800238B4003430232664941F871
:104D900022304FF0B0431A68F34322EA06016068FC
:104DA00010F4801F01D046EA02014FF0B0421160BA
:104DB000526803EA0201606810F4001F01D046EA5D
:104DC00002014FF0B0425160D2F8842003EA0201A0
:104DD000606810F4003F01D046EA02014FF0B04293
:104DE000C2F88410D2F880201340616811F4803F2B
:104DF00001D046EA02034FF0B042C2F880300135DC
:104E0000266836FA05F200F08C800127AF403E405C
:104E1000F5D0636803F00303013B012B7FF62EAF4F
:104E2000636803F00303032B0FD0A368022B3FF644
:104E300045AFD8F80C20690003238B4022EA030217
:104E4000A3688B401343C8F80C30636803F0030376
:104E5000022B3FF438AFD8F80020690003238B40C1
:104E600022EA0302636803F003038B401343C8F88C
:104E70000030636813F4403FC1D02C4BD3F8F420CA
:104E800042F00202C3F8F420D3F8F43003F0020336
:104E90000193019BAA08911C234B53F8210005F0B4
:104EA000030189000F238B4020EA0300204B984523
:104EB0003FF468AF03F58063984522D003F5806323
:104EC000984520D003F5806398451ED003F5806394
:104ED00098451CD003F5806398451AD003F580638C
:104EE000984518D003F58063984516D003F5806384
:104EF000984514D003F5806398453FF42EAF0A23FC
:104F000041E701233FE702233DE703233BE7042377
:104F100039E7052337E7062335E7072333E7082377
:104F200031E703B0BDE8F0830004005800440258A4
:104F30000000025838B504460D4621B123691D42D0
:104F400007D0012038BD4FF4C5710348FDF7A6FA1C
:104F5000F4E70020F6E700BF5011010870B50546E0
:104F600014460E4621B1012C08D86CB1AE6170BD5B
:104F70004FF4D5710648FDF791FAF4E740F2AB1112
:104F80000348FDF78BFAF0E73604AE61EFE700BFA8
:104F90005011010808B54FF0B043D3F888300342F0
:104FA00000D108BD4FF0B043C3F88800FDF76FF99A
:104FB000F7E7000070B54D680368DC68C4F30B4484
:104FC00025444FEAC21C03EBC213D3F8884004F413
:104FD0007044C3F888400B680468E668C6F30B4E5B
:104FE0007344013304EBC21443EA0543C4F8883028
:104FF000CD680368DC68C4F30A0405EB040E03EB18
:10500000C213D3F88C4004F47044C3F88C408B680E
:105010000468E568C5F30A052B44013304EBC214A8
:1050200043EA0E43C4F88C30036803EBC213D3F891
:10503000944024F00704C3F89440036803EBC213C0
:105040000C69C3F8944091F8316091F832508C6942
:1050500091F8303043EA062343EA0543056805EB3F
:10506000C21E43EA0463CEF89C300EF1840E03683E
:1050700003EBC213D3F8984024F0FF04C3F8984020
:10508000036803EBC2134C69C3F89840036803EB51
:10509000C213D3F8A0502A4C2C40C3F8A040CC69CE
:1050A000036803EBC2130D6A2C43C3F8A0400368E6
:1050B00003EBC2134A6AC3F8AC200B6983B1013B0E
:1050C000062B05D8DFE803F03A06080604040A00B8
:1050D000012506E0022504E0022502E0022500E0A9
:1050E000042503686344D3F8B02002F0E022C3F83B
:1050F000B0208B6A05FB03F44B680A689B1A05FB1A
:1051000003F307330268624443EA0443C2F8B03051
:1051100003686344D3F8B4400A4A2240C3F8B42079
:1051200003686344CA6AC3F8B42003686344D3F8CD
:10513000842042F00102C3F8842070BD0325D0E72B
:10514000F8F8FFFF00F8FFFF002800F0E48010B53A
:1051500004460268714B9A4203D0E7217048FDF77C
:105160009DF96369B3F5805F80F09380A369B3F51F
:10517000006F80F09380E369B3F5805F80F09380E7
:10518000236AB3F5006F80F09380A36AB3F5006FD4
:1051900080F09380636AB3F5805F80F09380236B27
:1051A000B3F5006F80F09380E36AB3F5805F80F021
:1051B00093806368002B18BFB3F1004F40F09180DB
:1051C000A368002B18BFB3F1804F40F08F80E368D5
:1051D000002B18BFB3F1005F40F08D802369002BD6
:1051E00018BFB3F1805F40F08B8094F8A130002BA2
:1051F00000F08B80022384F8A1302268936923F0A9
:105200007043936121688A696368A0680343E0681A
:1052100003432069034313438B616169A3692268D7
:1052200043EA01439360E169236A226843EA014348
:10523000D360616AA36A226843EA01431361E16AA9
:10524000236B226843EA0143536194F8350094F8D4
:1052500036301B042168CA6A02F07F42CA622168A4
:10526000CA6A43EA002394F8340003431343CB6231
:105270002268536B43F0060353632268936943F03B
:10528000010393610020C4F8A400012384F8A13035
:1052900010BDE8212248FDF701F967E7E921204820
:1052A000FDF7FCF867E7EA211D48FDF7F7F867E727
:1052B000EB211B48FDF7F2F867E7EC211848FDF7F2
:1052C000EDF867E7ED211648FDF7E8F867E7EE210E
:1052D0001348FDF7E3F867E7EF211148FDF7DEF823
:1052E00067E7F0210E48FDF7D9F869E7F1210C488E
:1052F000FDF7D4F86BE7F2210948FDF7CFF86DE729
:10530000F3210748FDF7CAF86FE784F8A03020467C
:10531000FCF762FE6EE70120704700BF00100050EE
:10532000A011010870477047704770B504460368C4
:105330009D6B5E6B15F0040F02D016F0040F12D1B6
:1053400015F0020F02D016F0020F21D115F0010F57
:1053500002D016F0010F32D115F0080F02D016F06E
:10536000080F3DD170BD5A6B22F004025A630368E6
:105370000422DA63D0F8A43043F00103C0F8A4306B
:1053800080F8A120002380F8A030FFF7CBFFD7E7FB
:105390002268536B23F00203536323680222DA630B
:1053A000D4F8A4301343C4F8A430042384F8A13003
:1053B000002384F8A0302046FFF7B4FFC6E7226838
:1053C000536B23F00103536322680123D36384F8F2
:1053D000A130002384F8A0302046FFF7A4FFBBE7EC
:1053E0002268536B23F00803536323680822DA63AF
:1053F000012384F8A130002384F8A0302046FFF771
:1054000093FFAFE7F8B505460C461646012A5AD871
:105410002368B3F5805F5CD26368B3F5803F5ED2EA
:10542000A368B3F5805F60D2E368B3F5803F62D2D2
:105430002369072B65D86369FF2B68D8A369FF2B05
:105440006BD8E369B3F5806F18BFB3F5C06F6AD14D
:10545000236A052B18BF072B6BD1A36AB3F5005F36
:105460006DD2E36AB3F5006F6FD295F8A030012BCF
:1054700071D0012785F8A070022385F8A1304FF084
:10548000340C0CFB065C0CF1380CA646BEE80F0091
:10549000ACE80F00BEE80F00ACE80F00BEE80F005C
:1054A000ACE80F00DEF80030CCF800303246214680
:1054B0002846FFF77FFD2B685F6285F8A17000200A
:1054C00085F8A000F8BD40F23E312448FCF7E6FF25
:1054D0009EE740F23F312148FCF7E0FF9CE74FF4A4
:1054E00050711E48FCF7DAFF9AE740F241311B4841
:1054F000FCF7D4FF98E740F242311848FCF7CEFFA2
:1055000096E740F243311548FCF7C8FF93E74FF4A4
:1055100051711248FCF7C2FF90E740F245310F4845
:10552000FCF7BCFF8DE740F246310C48FCF7B6FFB4
:105530008EE740F247310948FCF7B0FF8DE74FF4A2
:1055400052710648FCF7AAFF8BE740F24931034845
:10555000FCF7A4FF89E70220B4E700BFA01101080F
:1055600038B504460D464B1E012B16D894F8A030D2
:10557000012B18D0012284F8A020022384F8A13046
:1055800021684B6B43F008034B6323685D6284F82A
:10559000A120002084F8A00038BD40F2EF5103485C
:1055A000FCF77CFFE2E70220F6E700BFA01101084C
:1055B000F8B504460E461546012A1BD894F8A030CB
:1055C000012B1DD0012784F8A070022384F8A1309C
:1055D000342305FB03F303F138012344DE652A4637
:1055E00021442046FFF7E6FC84F8A170002084F8EF
:1055F000A000F8BD40F209710248FCF74FFFDDE75B
:105600000220F6E7A011010810B50446431E012B45
:105610000CD8164BDB6813F0040F0DD1134BDB686D
:1056200003F00703A3421FD0012010BD4FF4A17166
:105630000F48FCF733FFECE70C4AD36823F007036D
:105640002343D360FDF702FF0446084B5B6813F465
:10565000005F07D1FDF7FAFE001BB0F57A7FF4D9A1
:105660000120E2E70020E0E70020DEE700480258E2
:10567000F0110108002800F01C8438B504460368C6
:1056800013B113F03F0F25D0236813F0010F3AD068
:105690006368002B18BFB3F5803F02D0B3F5A02F8D
:1056A0001ED1A04A136903F03803926A102B21D04F
:1056B000182B1BD06368B3F5803F57D0002B6BD1FC
:1056C000984B1A6822F480321A601A6822F48022F9
:1056D0001A6050E040F2A1119348FCF7DFFED3E7D7
:1056E0004FF4D3719048FCF7D9FEDAE702F00302D9
:1056F000022ADFD18B4B1B6813F4003F03D0636891
:10570000002B00F0D883236813F0020F00F0B9805B
:10571000E368092B18BF012B03D9112B01D0192BDA
:1057200060D123697F2B63D87E4A1369926A13F094
:10573000380366D0182B61D0E368002B00F0F680A8
:1057400078490A6822F0190213430B60FDF77EFEC8
:105750000546744B1B6813F0040F40F0C180FDF741
:1057600075FE401B0228F4D9032068E06D4A1368D7
:1057700043F48033136063682BB3FDF767FE05467F
:10578000684B1B6813F4003FBDD1FDF75FFE401B63
:105790006428F5D9032052E0B3F5A02F09D0614B5E
:1057A0001A6822F480321A601A6822F480221A6081
:1057B000E1E75C4B1A6842F480221A601A6842F4EE
:1057C00080321A60D7E7FDF741FE0546554B1B684E
:1057D00013F4003F97D0FDF739FE401B6428F5D93C
:1057E00003202CE04FF4ED714F48FCF757FE98E78B
:1057F00040F2DB114C48FCF751FE95E712F0030F25
:105800009AD1484B1B6813F0040F03D0E368002BB8
:1058100000F05383434A136823F01903E1680B43F4
:105820001360FDF713FE05463E4B1B6813F0040F93
:1058300006D1FDF70BFE401B0228F5D9032038BD29
:10584000FDF71EFE41F20303984212D82269402A56
:1058500007D034494B6823F47C3343EA02334B606E
:105860000FE0304A536823F47C3343F40033536031
:1058700007E02C4A536823F0FE43216943EA0163A1
:105880005360236813F0100F00F09E80E369002B33
:1058900018BF802B5ED1236A3F2B61D8214A136940
:1058A00003F03803926A082B64D0182B5ED0E369AA
:1058B000002B00F0C9801B4A136843F0800313607B
:1058C000FDF7C4FD0546174B1B6813F4807F40F0BD
:1058D0009980FDF7BBFD401B0228F4D90320AEE7F9
:1058E000FDF7CEFD41F20303984212D82269402A07
:1058F00007D00C494B6823F47C3343EA02334B60F6
:10590000BFE7084A536823F47C3343F40033536001
:10591000B7E7044A536823F0FE43216943EA016371
:105920005360AEE700440258401201089D4A1368D4
:1059300023F001031360FDF789FD0546994B1B68B1
:1059400013F0040F9DD0FDF781FD401B0228F5D90F
:10595000032074E740F22B219348FCF79FFD9AE760
:105960004FF40B719048FCF799FD97E702F00302A2
:10597000012A9CD18B4B1B6813F4807F03D0E36911
:10598000802B40F09C82FDF77BFD41F2030398429F
:1059900012D8226A202A07D082494B6823F0F843A4
:1059A00043EA82634B600FE07E4A536823F0F8437A
:1059B00043F08043536007E07A4AD36823F07C5376
:1059C000216A43EA0163D360236813F0080F69D0AA
:1059D0006369012B4CD86369002B4FD0714A536F18
:1059E00043F001035367FDF731FD05466D4B5B6FD7
:1059F00013F0020F56D1FDF729FD401B0228F5D9FF
:105A000003201CE7FDF73CFD41F20303984212D846
:105A1000226A202A07D063494B6823F0F84343EAFF
:105A200082634B60D0E75F4A536823F0F84343F04A
:105A300080435360C8E75B4AD36823F07C53216AF4
:105A400043EA0163D360BFE7564A136823F080033B
:105A50001360FDF7FBFC0546524B1B6813F4807F77
:105A6000B2D0FDF7F3FC401B0228F5D90320E6E68F
:105A700040F26D214C48FCF711FDACE7494A536FE9
:105A800023F001035367FDF7E1FC0546454B5B6FCF
:105A900013F0020F06D0FDF7D9FC401B0228F5D900
:105AA0000320CCE6236813F0200F32D0A369012B2A
:105AB00015D8A369CBB13B4A136843F480531360F4
:105AC000FDF7C4FC0546374B1B6813F4005F20D17B
:105AD000FDF7BCFC401B0228F5D90320AFE64FF4CC
